:020000040800F2
:10000000000002205D130108BD130108BD130108A3
:10001000BD130108BD130108BD1301080000000055
:100020000000000000000000000000006D45000816
:10003000BD130108000000007F450008194B0008AF
:10004000BD130108BD130108BD1301088D49000847
:10005000BD130108BD13010805310008293100084E
:100060004D3100087131000895310008BD130108B9
:100070008DC60008BD130108B5C50008BD130108F1
:1000800045C600086DC50008BD130108BD13010871
:10009000BD130108BD130108BD130108B9310008E3
:1000A000BD130108BD130108C94C0008BD130108A8
:1000B000BD130108BD130108BD130108BD130108DC
:1000C000BD130108BD130108BD130108BD130108CC
:1000D000BD13010895C40008ADC40008C5C40008DC
:1000E00019320008BD130108BD130108BD13010832
:1000F000BD130108BD130108BD130108BD1301089C
:10010000BD130108BD13010817470008BD130108FE
:10011000DDC40008F5C40008BD130108BD130108C3
:10012000BD130108BD130108BD130108BD1301086B
:10013000BD130108BD130108BD130108BD1301085B
:10014000BD130108BD130108BD130108BD1301084B
:10015000FDC50008BD13010825C500080DC5000830
:10016000BD130108BD130108BD130108BD1301082B
:10017000BD130108BD130108BD130108BD1301081B
:0C018000BD130108BD13010800000008B9
:1001900080B483B000AF78600A4A7B681A607B68DD
:1001A00000221A617B6800225A607B6800229A60F4
:1001B0007B680022DA607B6818460C37BD465DF824
:1001C000047B7047701D010890B585B000AFF860E2
:1001D000C7E9002304F0BAF9FB681B680C331B68FD
:1001E000F86898470346002B02D004F0B7F90EE0F8
:1001F00005F08EFC0246FB685A60FB685A68D7E936
:100200000034C2E90A3404F0A9F905F013FC1437EC
:10021000BD4690BD90B585B000AFF860C7E900233A
:1002200004F094F9FB681B6808331B68F86898476A
:100230000346002B02D004F091F90EE005F068FCB3
:100240000246FB689A60FB689A68D7E90034C2E905
:100250000A3404F083F905F0EDFB1437BD4690BD78
:1002600090B585B000AFF860C7E9002304F06EF9DF
:10027000FB681B6810331B68F86898470346002B1F
:1002800002D004F06BF90EE005F042FC0246FB6878
:10029000DA60FB68DA68D7E90034C2E90A3404F0AE
:1002A0005DF905F0C7FB1437BD4690BD80B582B03F
:1002B00000AF78607B689B68002B04D07B689B68EC
:1002C000184605F031FC7B6800229A607B681B6948
:1002D000002B07D07B681A697B681B691B681B6849
:1002E0001046984700BF0837BD4680BD80B582B034
:1002F00000AF78607B685B68002B04D07B685B682C
:10030000184605F011FC7B6800225A607B681B6967
:10031000002B08D07B681A697B681B691B68043353
:100320001B681046984700BF0837BD4680BD80B5A2
:1003300082B000AF78607B68DB68002B04D07B68FC
:10034000DB68184605F0F0FB7B680022DA607B680A
:100350001B69002B08D07B681A697B681B691B68C6
:1003600008331B681046984700BF0837BD4680BD5C
:1003700080B483B000AF786039607B683A681A61F6
:1003800000BF0C37BD465DF8047B704780B582B076
:1003900000AF786039607B68012B07D13B684FF66E
:1003A000FF72934202D1034810F0AAFD00BF083744
:1003B000BD4680BDE804002080B500AF4FF6FF7158
:1003C0000120FFF7E3FF80BD80B584B000AFF86087
:1003D000B9607A603B600C4AFB681A60FB683A6857
:1003E0001A61FB687A689A60084B1B685A1C0749B7
:1003F0000A60FA68D360B968F86800F009F8FB6829
:1004000018461037BD4680BDA41E010838060020DE
:1004100080B582B000AF786039603B681A687B684D
:100420005A603B687A681A6000F03AF80346002B7D
:1004300002D0034800F09CF900BF0837BD4680BDDC
:10044000301E010880B582B000AF7860084A7B6832
:100450001A60084B1B78002B03D1074800F088F97D
:1004600000E000BF7B6818460837BD4680BD00BF6E
:10047000A41E010810B00020881E010880B582B0BB
:1004800000AF78607868FFF7DDFF1421786800F02E
:100490009DFC7B6818460837BD4680BD0000000003
:1004A00080B400AF034B1B78DBB21846BD465DF845
:1004B000047B704768A6002080B584B000AF7860E8
:1004C0007B68073323F007037B607B68B3F5204F1D
:1004D00004D9154800F04CF9002321E0FFF7E0FFB4
:1004E0000346002B04D0114800F042F9002317E026
:1004F0000F4B1A687B681344B3F5204F04D30D48A3
:1005000000F036F900230BE0094B1B680A4A13443C
:10051000FB60074B1A687B681344054A1360FB684D
:1005200018461037BD4680BDF81E0108541F01084B
:1005300040A60020B01F01084006002080B400AF94
:1005400000BFBD465DF8047B70472DE9F04389B0DC
:1005500000AF0FF0D9FDC7E90401414BD3E90034E6
:10056000D7E90412B1EB030862EB0409404649469F
:100570000EF076FD38A3D3E900230EF0C9FE034642
:100580000C46C7E90234364AD7E90434C2E90034DC
:10059000344BD3E90012344BD3E90034CD1A62EB6B
:1005A0000406284631460EF05BFD03460C46C7E9BB
:1005B00000342C4BD3E900342B4AC2E90034D7E98C
:1005C0000223D7E900010EF0A3FE03460C462546A0
:1005D0001C4603F0C2FE034618460EF005FD024617
:1005E0000B46204629460EF093FE03460C461A465B
:1005F00023464FF000001D490EF0A8FB03460C46B1
:10060000C7E906344FF00002184BD7E906010EF097
:10061000E5FF0346002B04D04FF00003134CC7E95D
:1006200006344FF000024FF00003D7E906010EF048
:10063000B7FF0346002B05D04FF000034FF0000436
:10064000C7E90634D7E906010FF01AF80346184641
:100650002437BD46BDE8F0830000000065CDCD41E4
:1006600048A6002020B0002050A600200000F03F47
:100670000FB480B582B000AF184B1B68002B26D09A
:100680003B46184610F080FC07F114037B60FFF72F
:1006900007FF034683F00103DBB2002B05D03B4686
:1006A0003969184601F040FB0AE00D4804F083FF69
:1006B0003B463969184601F037FB094804F0DEFF74
:1006C00004F0A1FD3B46184610F030FC00E000BFEE
:1006D0000837BD46BDE8804004B0704740000020A8
:1006E00058A600200EB480B585B000AF78607B6856
:1006F000B3F1FF3F05D01C4B1A687B681340002BF9
:100700002AD007F10803184610F03EFC07F1200339
:10071000FB60FFF7C5FE034683F00103DBB2002B4D
:1007200006D007F10803F969184601F0FDFA0BE05D
:100730000E4804F040FF07F10803F969184601F07C
:10074000F3FA0A4804F09AFF04F05DFD07F108038C
:10075000184610F0EBFB00E000BF1437BD46BDE8C3
:10076000804003B0704700BF4000002058A6002022
:1007700080B582B000AF78600C4A7B6813600C4B88
:100780001B6801330A4A136000227968094810F097
:1007900074FC094B1B78002B03D079680748FFF7DE
:1007A00067FF00BF0837BD4680BD00BF00000020C6
:1007B000E4040020E8040020040000205820010880
:1007C00080B586B000AFF860B9607A60BB683B6105
:1007D000F9680E48FFF74CFF00237B617A697B685C
:1007E0009A420BD23A697B6913441B781946084830
:1007F000FFF73EFF7B6901337B61EFE70548FFF7B9
:1008000037FF00BF1837BD4680BD00BF7820010804
:100810007C2001088420010880B584B000AFF86016
:10082000B9607A603B60084B1A68FB681340002B84
:1008300005D03A687968B868FFF7C2FF00E000BFEA
:100840001037BD4680BD00BF4000002080B487B097
:1008500000AFF860B9607A60BB68C3F12003FA6842
:1008600002FA03F3FB6000237B617A69BB689A425A
:1008700011D2FB68002B01DA312100E030217A68C7
:100880007B6913440A461A70FB685B00FB607B6956
:1008900001337B61E9E77A68BB68134400221A7070
:1008A0007B6818461C37BD465DF8047B704790B5E1
:1008B0008BB000AFF860B9607A603B6007F1140359
:1008C000BA68F968184610F06FFB3B68BB61FFF728
:1008D000E7FD034683F00103DBB2002B06D007F1EE
:1008E00014037968184601F01FFA0BE00B4804F076
:1008F00062FE07F114037968184601F015FA0748FB
:1009000004F0BCFE7C6A07F11403184610F06AFB81
:10091000234618462C37BD4690BD00BF58A6002080
:100920000CB480B584B000AF7860396007F11C0367
:10093000BB60BB68BA6939687868FFF7B8FFF860D0
:10094000FB6818461037BD46BDE8804002B07047CE
:100950000EB480B585B000AF786007F12003FB606E
:10096000FB68FA694FF47A717868FFF7A0FF00BF5F
:100970001437BD46BDE8804003B0704780B582B0F3
:1009800000AF786039607B68012B07D13B684FF678
:10099000FF72934202D1034804F0F6FD00BF08370E
:1009A000BD4680BD58A6002080B500AF4FF6FF7150
:1009B0000120FFF7E3FF80BD80B485B000AF786011
:1009C0000023FB607B68002B01D100230BE07B68D8
:1009D0001B78002B06D0FB680133FB607B6801337A
:1009E0007B60F4E7FB6818461437BD465DF8047B6E
:1009F000704780B485B000AF786039600023FB6039
:100A00007B68002B01D1002310E07B681B78002B52
:100A10000BD0FB680133FB607B6801337B60FA68B5
:100A20003B689A42F1D3FB6800E0FB681846143734
:100A3000BD465DF8047B704780B485B000AF786038
:100A400039607B68FB603B68002B02D0FB68002BA1
:100A500001D17B6812E03B681B78002B0AD03B6811
:100A60001A78FB681A70FB680133FB603B6801333E
:100A70003B60F0E7FB6800221A707B681846143769
:100A8000BD465DF8047B704780B586B000AF7860E6
:100A900039603B685A1C3A601B78FB75FB7D002B64
:100AA00014BF01230023DBB2002B28D03868FFF7E6
:100AB00083FF38617B685A1C7A601B78FB73FB7B71
:100AC000002B0CBF01230023DBB2002B01D000233D
:100AD00016E0FA7BFB7D9A4200D0EBE73A69396871
:100AE000786800F029F90346002B14BF0123002386
:100AF000DBB2002B00D0DDE77B68013B7B607B68CD
:100B000018461837BD4680BD80B483B000AF78600A
:100B100039607B681B78002B09D07B681B781A46EC
:100B20003B68934203D07B6801337B60F1E77B68CD
:100B30001B781A463B68934201D17B6800E0002392
:100B400018460C37BD465DF8047B704780B487B00B
:100B500000AFF8600B467A60FB72FB68002B01D196
:100B6000FB680FE0FB687B617B68002B09D07B6929
:100B7000FA7A1A707B6901337B617B68013B7B6089
:100B8000F2E7FB6818461C37BD465DF8047B7047EA
:100B900080B487B000AFF860B9607A60FB687B61B1
:100BA000BB683B617B69002B02D03B69002B01D104
:100BB000002311E07B68002B0DD03B691A787B691C
:100BC0001A707B68013B7B603B6901333B617B6949
:100BD00001337B61EEE7FB6818461C37BD465DF8C4
:100BE000047B704780B487B000AFF860B9607A606A
:100BF000FB687B61BB683B617B68002B1AD07B691B
:100C00001A783B691B789A4202D24FF0FF3312E008
:100C10007B691A783B691B789A4201D901230AE063
:100C20007B6901337B613B6901333B617B68013B3D
:100C30007B60E1E7002318461C37BD465DF8047B66
:100C4000704780B487B000AFF860B9607A60FB6825
:100C50007B617B69002B02D0BB68002B01D1002394
:100C600019E07B68002B12D0BB681A787B691A7078
:100C7000BB681B78002B09D0BB680133BB607B6964
:100C800001337B617B68013B7B60EAE700BF7B69E6
:100C900000221A70FB6818461C37BD465DF8047BBD
:100CA000704780B582B000AF786039603868FFF770
:100CB00083FE034601331A4639687868FFF768FFF8
:100CC000034618460837BD4680BD80B485B000AFE6
:100CD000786039607B68002B07D13B68002B01D11D
:100CE000002323E04FF0FF3320E03B68002B01D1CD
:100CF00001231BE07B685A1C7A601B78FB733B68FE
:100D00005A1C3A601B78BB73FA7BBB7B9A4202D2B7
:100D10004FF0FF330AE0FA7BBB7B9A4201D90123F3
:100D200004E0FB7B002B00D0E4E7002318461437D7
:100D3000BD465DF8047B704780B487B000AFF860B3
:100D4000B9607A60FB68002B07D1BB68002B01D12A
:100D500000232BE04FF0FF3328E0BB68002B01D1CC
:100D6000012323E0FB685A1CFA601B78FB75BB6803
:100D70005A1CBA601B78BB757B68002B01D100231D
:100D800014E07B68013B7B60FA7DBB7D9A4202D216
:100D90004FF0FF330AE0FA7DBB7D9A4201D901236F
:100DA00004E0FB7D002B00D0DCE7002318461C3755
:100DB000BD465DF8047B704780B483B000AF7860B7
:100DC00000BF0C37BD465DF8047B704780B582B02C
:100DD00000AF786039607868FFF7EEFF00BF083732
:100DE000BD4680BD90B484B000AFF860C7E9002371
:100DF000FA68D7E90034C2E90E34FA68D7E9063454
:100E0000C2E9103400BF1037BD4690BC7047F0B542
:100E100087B002AF78607B68D3E9103423430AD1EE
:100E20001648FFF7A5FC00224FF0FF306FF000419D
:100E300004F096FEEFE77B68D3E90E3400221846F3
:100E4000214604F08DFE0FF05FF9C7E902017B68CF
:100E5000D3E90E017B68D3E91056D7E90234CDE916
:100E600000342A46334600F063FE03460C467A6897
:100E7000C2E90E3400BF1437BD46F0BDD0200108D2
:100E800080B584B000AF786004F042FEF860FB6883
:100E9000002B06D100220949094810F0EEF8002382
:100EA00008E0F86804F01AFEB8607968F86804F0A1
:100EB00021FEBB6818461037BD4680BDFC200108E6
:100EC000E80400200000000090B482B000AF786019
:100ED0007A684FF000034FF00004C2E900347A68EA
:100EE0004FF000034FF00004C2E902347A684FF07B
:100EF00000034FF00004C2E904347B6811229A61B8
:100F00007B6818460837BD4690BC704798B500AF5F
:100F100003F052FF03460C461846214698BD90B593
:100F200083B000AF78600FF0EFF803460C461A4626
:100F30002346786800F08EF803460C461846214692
:100F40000C37BD4690BD90B585B000AFF860C7E9DD
:100F50000023FA68D7E90034C2E904340FF0D4F86A
:100F600003460C46FA68C2E9023400BF1437BD4696
:100F700090BD90B484B000AFF860C7E90023FA6870
:100F8000D7E90034C2E90034FA68D7E90634C2E987
:100F9000023400BF1037BD4690BC7047F0B585B035
:100FA00000AFF860C7E900230FF0AEF80A4601462B
:100FB000D7E900345D1A64EB0206FB68C3E900560A
:100FC0000FF0A2F803460C46FA68C2E9023400BFEB
:100FD0001437BD46F0BD90B585B000AFF860C7E9E5
:100FE0000023FA68D7E90034C2E900340FF08CF826
:100FF00003460C46FA68C2E9023400BF1437BD4606
:1010000090BD90B482B000AF78607B68D3E90034C3
:10101000184621460837BD4690BC7047F0B585B0EC
:1010200000AFF860C7E90023FB68D3E90012D7E9F5
:101030000034CD1842EB0406FB68C3E900560FF0FC
:1010400063F803460C46FA68C2E9023400BF14375D
:10105000BD46F0BD2DE9B04F88B000AF7861C7E95B
:1010600002237B69D3E90001D7E90223841841EB0D
:1010700003057B6993ED047B87ED007B7B69D3E9F6
:101080000223D7E90201B0EB020A61EB030B5046E1
:1010900059460DF0E5FF02460B46D7E900010EF078
:1010A0000DF802460B46104619464FF000020C4B55
:1010B0000DF04EFE02460B46104619460EF082FE1B
:1010C00002460B4614EB020845EB0309C7E9068903
:1010D000D7E90634184621462037BD46BDE8B08F13
:1010E0000000E03F2DE9F04387B000AFF860C7E9AA
:1010F0000023FB68D3E90034D7E90012CD1A62EB74
:101100000406284631460DF0ABFF80468946FB6851
:10111000D3E90445FB68D3E90223104619460DF0D4
:101120009FFF02460B46204629460DF0C7FF0346A7
:101130000C461A462346404649460DF009FE034632
:101140000C46C7E90434FB68D3E904014FF0000200
:10115000104B0DF0FDFD03460C461A462346D7E919
:1011600004010EF0D5F803460C46184621464FF010
:101170000002094B0DF0ECFD03460C4618462146D3
:101180000EF020FE03460C46184621461C37BD468D
:10119000BDE8F0830000F03F0000E03FB0B58EB046
:1011A00000AFC7E902017A603B60D7E90201924AC9
:1011B00044F694630EF09EFD03460C467B63D7E92C
:1011C00002018D4A44F694630EF094FD1C461346CA
:1011D000C7E90A347A6B894B13447B62786A0DF055
:1011E00003FF75A3D3E900230DF0B0FD03460C46C1
:1011F0001846214672A3D3E900230EF089F803466E
:101200000C46184621460EF0F3F903463B627A6A13
:101210003B6A1A443B6A002B00DA03339B105B42A3
:10122000134403F2F553FB61F8690DF0DDFE66A38C
:10123000D3E900230DF08AFD03460C4618462146EB
:1012400063A3D3E900230EF063F803460C46184667
:1012500021460EF0CDF90346BB61BB6940F26D1229
:1012600002FB03F2BB69002B00DA03339B1013442B
:101270007B61FA697B69D31A18460DF0B5FE56A357
:10128000D3E900230EF044F803460C4618462146E5
:101290000EF0AEF903463B61FA697B69D41A3869EE
:1012A0000DF0A2FE4CA3D3E900230DF007FF024688
:1012B0000B46104619460EF09BF90346E21ABB6C2A
:1012C0001A603B69591E3B694D4A82FB03021A446E
:1012D000D210DB179A1A13465B0013449B00CA18FE
:1012E0003B681A60BB69A3F593530B3B3A681268DD
:1012F0000732444981FB02018910D217521A1A445D
:101300007B681A60D7E90A013F4A40F246330EF083
:10131000F1FC03460C461A46FB6C1A60D7E90A0139
:101320002FA3D3E900230EF0E5FC03460C46184634
:1013300021464FF03C024FF000030EF0DBFC1C4650
:1013400013461A463B6D1A60D7E90A0126A3D3E972
:1013500000230EF0CFFC03460C46184621464FF002
:101360003C024FF000030EF0C5FC1C461346184625
:1013700021460DF075FE04460D46D7E90A011AA371
:10138000D3E900230EF0B6FC104619460DF068FEB6
:1013900017A3D3E900230DF0BBFF02460B462046FE
:1013A00029460DF0D5FC03460C467A6DC2E900349F
:1013B00000BF3837BD46B0BD00000040D07D3C4185
:1013C0000000000088D5E1406666666666865E407D
:1013D0000000000000D4764061545227A0993E409E
:1013E000005847F80D00000000CA9A3B00000000BA
:1013F0000000000065CDCD4100004F9159682500E7
:10140000932449926766666600A0B83090B583B0B1
:1014100000AF78607B68D3E90034184621460DF0B0
:101420001FFE0BA3D3E900230DF072FF03460C4609
:101430001846214608A3D3E900230DF089FC034692
:101440000C46184621460C37BD4690BDAFF30080D0
:101450000000C05324A5D34200000000002BE94047
:101460002DE9B04388B000AFF860B9607A603B60A6
:10147000FB6840F26F1202FB03F1BB680933384A84
:1014800082FB03025210DB17D21AFB681A44134680
:10149000DB009B1A002B00DA03339B105B42CA1857
:1014A000BB6840F2131101FB03F32E4981FB0301DA
:1014B0004910DB17CB1A1A447B681344A3F5322377
:1014C000A3F2A353FB613A6813461B019B1A9B00CE
:1014D0001A46BB6B1A4413461B019B1A9B00184605
:1014E0000DF082FD03460C461A462346D7E910014B
:1014F0000DF02EFC03460C46C7E90434FB694FEAA5
:10150000E374194A02FB04F144F6946202FB03F20D
:101510000A441549A3FB014553191D460EA3D3E9FF
:101520000023D7E904010DF0C9FD02460B46104621
:1015300019460EF047FC02460B4614EB020845EB39
:10154000030943464C46184621462037BD46BDE8B0
:10155000B08300BFAFF300800000000065CDCD4137
:10156000ABAAAA2A398EE33800004F91B0B588B0F3
:1015700000AFF860B9607A603B60BB681B78FB76AF
:10158000FB681B883B83FB7E022B05D8FB7E0C335C
:10159000FB763B8B013B3B833B8B42F2107202FBA1
:1015A00003F2BB681B781946642303FB01F3134461
:1015B0007A6812781344564A93422BDC3B8B40F2F4
:1015C0006D1202FB03F3A3F52522A2F65E423B8BCC
:1015D00003F593530C33002B00DA03339B101344B1
:1015E000A3F29B44BB681B78013318460DF0FCFC4A
:1015F00043A3D3E900230DF061FD02460B461046DC
:1016000019460DF0F5FF034623447A681278134417
:10161000FB6130E03B8B40F26D1202FB03F3A3F55C
:101620002523A3F65C433A8B3A49A1FB0212D20967
:1016300092B213443A8B3749A1FB0212520992B27B
:101640009B1A3A8B920892B29C18FB7E0133184683
:101650000DF0CAFC2AA3D3E900230DF02FFD0246AA
:101660000B46104619460DF0C3FF034623447A6823
:1016700012781344FB613B681B7818460DF0B4FCEC
:1016800004460D463B6B1B7818460DF0ADFC4FF041
:101690000002214B0DF03CFE02460B462046294637
:1016A0000DF056FB03460C4625461C467B6BD3E9E2
:1016B000000115A3D3E900230DF02AFE02460B46D4
:1016C000204629460DF044FB03460C4618462146A9
:1016D0004FF00002114B0DF01BFE03460C46C7E90C
:1016E0000434F8690DF070FCD7E904230DF030FBE9
:1016F00003460C46184621462037BD46B0BD00BF04
:1017000061545227A0993E40000000000020AC40E8
:10171000CC68F1001F85EB5100004E4000003840BE
:10172000B0B592B000AF78613961FA60BB604FF03C
:1017300000034FF00004C7E910344FF000034FF0EE
:101740000004C7E90E344FF000034FF00004C7E96E
:101750000C344FF000034FF00004C7E906340023B7
:10176000FB620023BB6200237B627B69D3E9003408
:10177000184621460DF03CFF0246B74B13443B622E
:101780007B69D3E900457B69D3E9002310461946FC
:101790000DF02EFF034618460DF026FC02460B46C0
:1017A000204629460DF0D2FA03460C46C7E910340C
:1017B0003B6A07EE903AF8EE677A9FEDA87A77EEEB
:1017C000C77AFDEEE77A17EE900A0DF00DFC98A3AC
:1017D000D3E900230DF09CFD03460C46C7E90E3407
:1017E000386A0DF0F1FBD7E90E230DF0B1FA03468C
:1017F0000C4625461C464FF00002994BD7E90E01D6
:101800000DF086FD02460B46204629460DF09EFA55
:1018100003460C461846214687A3D3E900230DF062
:1018200097FA03460C46C7E90C3485A3D3E9002395
:10183000D7E90C010DF08AFA03460C4618462146FA
:1018400081A3D3E900230DF063FD03460C4618463F
:1018500021460DF0CDFE0346FB62F86A0DF0C4FB95
:1018600079A3D3E900230DF029FC03460C46184662
:1018700021460DF0BDFE0346BB62B86A0DF0B4FB15
:1018800003460C461A462346D7E90C010DF05EFAD2
:1018900003460C46184621466DA3D3E900230DF0FC
:1018A00037FD03460C46184621460DF0A1FE0346BF
:1018B0007B62B86A0DF098FB03460C461A46234635
:1018C000D7E90C010DF042FA03460C4625461C46AA
:1018D0007B6A07EE903AF8EEE77A9FED627A67EE60
:1018E000877AFCEEE77AC7ED017A3B79DBB21846DE
:1018F0000DF07AFB02460B46204629460DF026FAEB
:1019000003460C46184621460DF09AFE0346DAB20D
:10191000BB681A707B6ADAB27B6A534981FB0301A8
:101920001944C910DB175B1ADBB2194649000B4496
:101930009B00DBB21344DBB2013BDAB2FB681A70E6
:10194000FB6A9AB2FB681B780733484981FB0301A5
:101950008910DB175B1A9BB213449BB2A3F5935318
:101960000B3B9AB23B691A804FF00002404BD7E91B
:1019700010010DF0A3FB03460C46184621460DF05E
:101980005FFE0346DAB2BB6D1A704FF00002384BAF
:10199000D7E910010DF092FB03460C4625461C4684
:1019A000BB6D1B7818460DF01FFB02460B46204608
:1019B00029460DF0CBF903460C46C7E90634D7E9B2
:1019C00006014FF000022B4B0DF078FB03460C464E
:1019D000184621460DF034FE0346DAB2FB6D1A704C
:1019E000D7E906014FF00002224B0DF067FB0346DA
:1019F0000C4625461C46FB6D1B7818460DF0F4FA84
:101A000002460B46204629460DF0A0F903460C4637
:101A1000184621464FF00002164B0DF04FFB0346CF
:101A20000C463A6EC2E9003400BF4837BD46B0BD2F
:101A30000000000088D5E1400000000000D497407D
:101A40006666666666465E400000000000D476402A
:101A500061545227A0993E40019F240082EEE34941
:101A60000000104001CDF4419324499267666666F8
:101A70000000384000004E40B0B582B000AF786042
:101A800039607B68D3E900453B68D3E900010AA3CC
:101A9000D3E900230DF03CFC02460B4620462946C4
:101AA0000DF056F903460C46184621460837BD4648
:101AB000B0BD00BFAFF30080000000000018F5408B
:101AC000B0B584B000AFF860B9607A60FB68D3E964
:101AD00000457B68D3E9002311A1D1E900010DF095
:101AE00035F902460B4610461946BB68D3E9002378
:101AF0000DF02CF902460B46104619460AA3D3E90D
:101B000000230DF005FC02460B46204629460DF049
:101B10001FF903460C46184621461037BD46B0BD96
:101B2000643BDF4F8D174040000000000018F54077
:101B30002DE9F04F87B000AFC7E90401C7E90223E0
:101B4000D7E90423002A73F1000307DA3D48FEF7C2
:101B50000FFE4FF0FF346FF000456AE0D7E9022333
:101B6000002A73F1000307DA3748FEF701FE4FF051
:101B7000FF346FF000455CE0D7E91023002A73F1D1
:101B8000000307DA3148FEF7F3FD4FF0FF346FF042
:101B900000454EE0D7E90423D7E91001904271EBEC
:101BA000030302DAD7E9044543E0D7E902231343EC
:101BB00004D14FF0FF346FF000453AE04FF0FF30B2
:101BC0006FF00041D7E90423B0EB020A61EB030B8D
:101BD000D7E90223524573EB0B0304DB4FF0FF34CC
:101BE0006FF0004525E0D7E91001D7E90423861AF4
:101BF0003E6061EB03037B60D7E90223D7E9000174
:101C00000EF078F802460B4612F1010843F1000984
:101C1000BB6809FB03F2FB6808FB03F3D118BB6840
:101C2000A3FB082319440B46D7E90401141843EB1E
:101C3000010523462C46184621461C37BD46BDE803
:101C4000F08F00BF68210108BC21010810220108A3
:101C5000F0B587B000AFC7E902017A603B60D7E911
:101C600002011FA3D3E900230EF044F803460C46FB
:101C70001A467B681A607B681B684FF000041A4A9A
:101C800002FB04F14FF0FF3202FB03F20A44164953
:101C9000A3FB013422441446D7E90212CD1842EBCB
:101CA0000406C7E90456D7E904124FF000034FF0C9
:101CB00000040C000023C7E90434D7E9040108A399
:101CC000D3E900230EF016F803460C461A463B688B
:101CD0001A6000BF1C37BD46F0BD00BFAFF30080E7
:101CE00000CA9A3B00000000003665C480B582B08F
:101CF00000AF786039607B68012B07D13B684FF6F5
:101D0000FF72934202D10348FFF7DEF800BF0837A5
:101D1000BD4680BD70A6002080B500AF4FF6FF71B4
:101D20000120FFF7E3FF80BD90B59FB000AF786062
:101D300039603B685A1C3A601B7887F8773097F80F
:101D40007730002B14BF01230023DBB2002B00F0FF
:101D50006F84002387F87630002387F875300023DE
:101D600087F87430002387F87330002387F87230C7
:101D700097F87730252B0AD07B681B6808331B68DF
:101D800097F8772011467868984700F04ABC3B687E
:101D90005A1C3A601B7887F87730002387F86B303D
:101DA000202387F86A30032387F8693097F8773063
:101DB000302B09D197F8773087F86A303B685A1C86
:101DC0003A601B7887F8773097F877302F2B0ED949
:101DD00097F87730392B0AD897F87730303B87F867
:101DE0006B303B685A1C3A601B7887F8773097F85D
:101DF00077302E2B37D13B685A1C3A601B7887F816
:101E0000773097F87730002B00F00D8497F8773013
:101E1000303B87F869303B685A1C3A601B7887F87A
:101E2000773097F87730002B00F0FF8397F8773002
:101E30002F2B18D997F87730392B14D897F86930A9
:101E40001A46920013445B00DAB297F877301344D5
:101E5000DBB2303B87F869303B685A1C3A601B782C
:101E600087F87730E2E797F877306C2B08D10123B9
:101E700087F875303B685A1C3A601B7887F87730D2
:101E800097F877306C2B08D1012387F874303B68C2
:101E90005A1C3A601B7887F8773097F87730002B18
:101EA00000F0C58397F87730623B162B00F28F80E5
:101EB00001A252F823F000BFC71F0008CF1F00087F
:101EC0009B1F00086D1F0008871F0008CF1F000818
:101ED000CF1F0008A91F0008CF1F0008CF1F000850
:101EE000CF1F0008CF1F0008CF1F0008571F000892
:101EF000CF1F0008CF1F0008CF1F0008151F0008C4
:101F0000CF1F0008B71F0008CF1F0008CF1F000811
:101F1000BF1F00087B681A1D1368191D11601B681C
:101F2000FB66FB6E5A1CFA661B7887F8773097F8C9
:101F30007730002B14BF01230023DBB2002B00F00D
:101F40006F837B681B6808331B6897F877201146FE
:101F500078689847E5E70823A7F870307B681B6826
:101F600008331B6830217868984746E0012387F8DA
:101F70007230012387F87330012387F876300A2303
:101F8000A7F8703039E0012387F87330012387F810
:101F900076300A23A7F870302FE0012387F87630D7
:101FA0000A23A7F8703028E0002387F876300A2348
:101FB000A7F8703021E00A23A7F870301DE0102345
:101FC000A7F8703019E00223A7F8703015E097F8F1
:101FD0007730632B07D17B681A1D1368191D1160B8
:101FE0001B6887F877307B681B6808331B6897F895
:101FF000772011467868984713E34FF000034FF0BD
:102000000004C7E916344FF000034FF00004C7E99D
:1020100014340023FB6497F87230002B00F03C81ED
:102020007B681A1D1368073323F0070303F10801C7
:102030001160D3E90034C7E91434D7E91423D7E990
:1020400014010DF0A3FA0346002B15D17B681B6821
:1020500008331B686E21786898477B681B680833D3
:102060001B686121786898477B681B6808331B6888
:102070006E2178689847D4E2012387F84B304FF0FF
:102080000003AB4CC7E9103497F86B30013BFB639E
:102090004FF000024FF00003D7E914010DF080FA71
:1020A0000346002B02D0FF2387F84B3097F94B30C3
:1020B000B3F1FF3F05D1FB6B002B02DDFB6B013B56
:1020C000FB63FB6B5A1EFA63002BCCBF012300237A
:1020D000DBB2002B0BD04FF00002964BD7E910017A
:1020E0000CF0ECFF03460C46C7E91034E9E797F91A
:1020F0004B3018460CF078FFD7E914230CF0DEFFC4
:1021000003460C461A462346D7E910010DF066FA3D
:102110000346002B00D13DE097F94B3018460CF0F8
:1021200063FFD7E914230CF0C9FF03460C46194698
:10213000224601231C4613460A46D7E910010DF03A
:102140004DFA0346002B01D100231C46E3B283F075
:102150000103DBB2002B5ED14FF000024FF0000311
:10216000D7E914010DF012FA0346002B53D1FB6C92
:1021700013F5997F4FDB4FF000026E4BD7E9140146
:102180000CF09CFF03460C46C7E91434FB6C013B82
:10219000FB64C1E797F94B3018460CF025FFD7E9EF
:1021A00014230CF08BFF03460C46194622460123EC
:1021B0001C4613460A46D7E910010DF0FBF9034609
:1021C000002B01D100231C46E3B283F00103DBB2F4
:1021D000002B12D1FB6CB3F5997F0EDC4FF000029F
:1021E000544BD7E914010DF093F803460C46C7E9A8
:1021F0001434FB6C0133FB64CCE74FF000024D4B11
:10220000D7E914010CF05AFF03460C46C7E9143411
:10221000FB6C013BFB64FB6C13F5997F0EDC002328
:10222000FB644FF000034FF00004C7E916344FF091
:1022300000034FF00004C7E9143496E0FB6CB3F5DB
:10224000997F20DB97F94B30002B06DA7B681B68FF
:1022500008331B682D21786898477B681B68083312
:102260001B686921786898477B681B6808331B687E
:102270006E21786898477B681B6808331B68662165
:1022800078689847CDE1D7E914010DF09BFD03462E
:102290000C46C7E9163468E097F87330002B34D049
:1022A0007B681A1D1368073323F0070303F1080145
:1022B0001160D3E90034C7E91434D7E91423D7E90E
:1022C00014010DF063F90346002B15D17B681B68E0
:1022D00008331B686E21786898477B681B68083351
:1022E0001B686121786898477B681B6808331B6806
:1022F0006E217868984794E1D7E914010DF062FDEA
:1023000003460C46C7E916342FE097F87430002BCB
:1023100012D07B681A1D1368073323F0070303F1FB
:1023200008011160D3E90034C7E916341DE000BF8D
:102330000000F03F0000244097F87530002B0AD0D1
:102340007B681A1D1368191D11601B684FEAE3743E
:10235000C7E9163409E07B681A1D1368191D11605E
:102360001B684FEAE374C7E9163497F87630002B00
:102370002DD0D7E91634002B74F100030ADB4FF09F
:1023800000024FF00003D7E914010DF009F90346EC
:10239000002B1CD0D7E916345B4264EB4404C7E938
:1023A00016343B6D3B657B6D83F000437B657B683A
:1023B0001B6808331B682D217868984797F86B30A5
:1023C000002B04D097F86B30013B87F86B3097F8FF
:1023D0007430002B04D0D7E91634C7E918340EE066
:1023E00097F87530002B05D0BB6D4FF00004C7E99E
:1023F000183404E0BB6D4FF00004C7E918341A2309
:102400007B6307F114031933FB66FB6E00221A701D
:10241000B7F870304FF00004D7E918011A46234688
:102420000DF0B8FC1C461346DBB2303387F83B3066
:1024300097F83B30392B04D997F83B30073387F8AE
:102440003B30FB6E013BFB66FB6E97F83B201A703E
:10245000B7F870304FF000041A462346D7E9180148
:102460000DF098FC03460C46C7E9183497F86B301A
:10247000002B04D097F86B30013B87F86B30D7E91D
:102480001834234300D0C3E797F86B305A1E87F8FF
:102490006B20002B14BF01230023DBB2002B07D0DD
:1024A000FB6E013BFB66FB6E97F86A201A70EBE748
:1024B000FB6E5A1CFA661B7887F8773097F87730EE
:1024C000002B14BF01230023DBB2002B09D07B6853
:1024D0001B6808331B6897F877201146786898477F
:1024E000E6E797F87330002B41D07B681B68083310
:1024F0001B682E217868984797F869305A1E87F82C
:102500006920002B14BF01230023DBB2002B2ED047
:10251000D7E916010CF0A4FD03460C461A462346E3
:10252000D7E914010CF012FC03460C46C7E9143439
:102530004FF00002404BD7E914010CF0BFFD0346F9
:102540000C46C7E91434D7E914010DF03BFC0346EF
:102550000C46C7E916347B681B6808331B6897F87C
:1025600058203032D2B2114678689847C4E797F8BD
:102570007230002B3FF4DDAB7B681B6808331B68AF
:10258000652178689847FB6C002B09DA7B681B682B
:1025900008331B682D2178689847FB6C5B42FB640D
:1025A00006233B6307F10C030533FB66FB6E002239
:1025B0001A70B7F87020FB6C93FBF2F102FB01F28A
:1025C0009B1ADBB2303387F82F30FB6E013BFB6682
:1025D000FB6E97F82F201A70B7F87030FA6C92FBE8
:1025E000F3F3FB64FB6C002B00D0E2E7FB6E5A1C9C
:1025F000FA661B7887F8773097F87730002B14BF8E
:1026000001230023DBB2002B3FF493AB7B681B68F4
:1026100008331B6897F87720114678689847E5E7F4
:1026200000BFFFF786BB00BF02E000BF00E000BFB5
:102630007C37BD4690BD00BF000024400FB480B57C
:1026400082B000AF0D4B1B68002B10D03B461846E4
:102650000EF09AFC07F114037B603B46396918467B
:10266000FFF762FB3B4618460EF060FC00E000BF3F
:102670000837BD46BDE8804004B0704740000020E8
:102680000EB480B587B000AF786007F10C037968AD
:1026900018460EF027FD07F128033B6107F10C03F4
:1026A000796A1846FFF740FB07F10C0318460EF055
:1026B00049FD00BF1C37BD46BDE8804003B07047F0
:1026C00080B483B000AF0346FB7197F9073003F085
:1026D0001F02074997F907305B09012000FA02F24F
:1026E00041F8232000BF0C37BD465DF8047B7047DE
:1026F00000E100E080B483B000AF0346FB7197F9BE
:102700000730DBB203F01F02074997F907305B0976
:10271000012000FA02F2603341F8232000BF0C3799
:10272000BD465DF8047B704700E100E080B500AF76
:10273000124B1B7883F00103DBB2002B1CD00F4B34
:1027400001221A7001214FF4804005F0BFFC0620E1
:10275000FFF7B6FF0720FFF7B3FF0820FFF7B0FF32
:102760000920FFF7ADFF0A20FFF7AAFF1720FFF7A8
:10277000A7FF2820FFF7A4FF00BF80BD90A6002080
:1027800080B582B000AF7860084611461A4603460D
:102790007B800B467B7013463B707B687A881A807F
:1027A0007B687A781A727B683A785A72786800F097
:1027B00023F8B7F90230184600F008F902467B68A2
:1027C0005A617B680C33184603F038FF7B685B89DD
:1027D0001A467B68DA607B6802225A747B680022A2
:1027E0001A747B6800221A767B6800225A767B680E
:1027F00018460837BD4680BD80B483B000AF78600E
:102800007B681B7A1A467B68B3F900309BB203F0F1
:102810000F031344102B0DDD7B68B3F900309BB21E
:1028200003F00F034FF6FF7202FA03F39AB27B68CC
:102830005A8118E07B681B7AC3F110034FF6FF72D0
:1028400042FA03F39AB27B685A817B685B891A4625
:102850007B68B3F900309BB203F00F0302FA03F375
:102860009AB27B685A8100BF0C37BD465DF8047B85
:10287000704780B582B000AF78607B6801225A76DD
:102880007B685B681A467B685B681B681C331B6847
:10289000104698477B68B3F900305A4203F00F03A3
:1028A00002F00F0258BF53421BB21946034A0123DC
:1028B0008B40536100BF0837BD4680BD003C0140DE
:1028C00080B485B000AF78600023FB737B685B0841
:1028D0007B607B68002B14BF01230023DBB2002B3D
:1028E00003D0FB7B0133FB73F0E7FB7B1846143707
:1028F000BD465DF8047B704780B483B000AF78605C
:102900007B68274A934234D0254A934213D8254AFC
:10291000934228D0234A934206D8234A93421ED09A
:10292000224A93421DD033E0214A93421DD0214ACE
:1029300093421CD02CE0204A934220D01E4A93425E
:1029400006D81E4A934216D01D4A934215D01FE066
:102950001C4A934216D01C4A934216D018E0012319
:1029600017E0022315E0042313E0082311E01023ED
:102970000FE020230DE040230BE0802309E04FF41B
:10298000807306E04FF4007303E04FF4806300E0CF
:10299000002318460C37BD465DF8047B704700BF26
:1029A00000140240000802400000024000040240FF
:1029B000000C0240001002400020024000180240BB
:1029C000001C0240002402400028024080B483B072
:1029D00000AF0346FB80B7F906300F2B01DC1C4B20
:1029E00030E0B7F906301F2B01DC1A4B2AE0B7F9AB
:1029F00006302F2B01DC184B24E0B7F906303F2BB3
:102A000001DC164B1EE0B7F906304F2B01DC144BEE
:102A100018E0B7F906305F2B01DC124B12E0B7F972
:102A200006306F2B01DC104B0CE0B7F906307F2B22
:102A300001DC0E4B06E0B7F906308B2B01DC0C4BAA
:102A400000E0002318460C37BD465DF8047B704754
:102A5000000002400004024000080240000C024056
:102A6000001002400014024000180240001C024006
:102A70000020024080B483B000AF0346FB80FB8897
:102A800003F00F03012202FA03F39BB218460C373E
:102A9000BD465DF8047B704780B586B000AF034645
:102AA0000A46FB8013467B71B7F90630002B03DB27
:102AB000B7F906308B2B02DD4FF0FF3337E0B7F963
:102AC00006301846FFF782FF7861B7F906301846DE
:102AD000FFF7D0FF03467B827869FFF70DFF0346BF
:102AE0000121184605F072FA7869FFF705FF0346E1
:102AF0000021184605F00AFB7B8A1846FFF7E0FE26
:102B000003469BB27A791946786903F078FE07F19B
:102B10000803184603F092FD02233B737B8ABB60D7
:102B200007F108031946786903F0FAFC00231846F8
:102B30001837BD4680BD80B584B000AF0346FB802A
:102B4000B7F90630002B03DBB7F906308B2B02DD1B
:102B50004FF0FF331AE007F10803184603F06EFD4B
:102B600000233B73B7F906301846FFF783FF03468F
:102B7000BB60B7F906301846FFF728FF024607F199
:102B800008031946104603F0CBFC00231846103703
:102B9000BD4680BD90B583B000AF78600B467B80AA
:102BA0007B681846FDF7F4FA104A7B681A601C200F
:102BB000FDF782FC02467B689A617B689B69194637
:102BC0001C200EF0E1FA0446B7F90210002301229E
:102BD0002046FFF7D5FD7B689C617B689B697A681E
:102BE0005A607B6818460C37BD4690BDFC2301082F
:102BF00090B583B000AF78600B467B801C20FDF75A
:102C00005BFC02467B689A617B689B6919461C20C5
:102C10000EF0BAFA0446B7F902100023012220464A
:102C2000FFF7AEFD7B689C617B689B697A685A60A0
:102C300000BF0C37BD4690BD80B584B000AFF860D2
:102C40007B600B46FB721346BB72BB7A002B03D032
:102C5000FB689B69BA7A1A72FB689B69FA7A5A72A6
:102C6000FB689B691846FFF7C7FDFB689B695B69BA
:102C7000002B02D14FF0FF3321E0FB689B695B69B9
:102C80001846FFF739FE03460121184605F09EF964
:102C9000FB689B695B7A002B09D001220021F86850
:102CA00000F011F87968F86800F0CDF804E000222F
:102CB0000021F86800F007F8FFF738FD00231846F8
:102CC0001037BD4680BD80B584B000AFF8600B46BC
:102CD0007A60FB72FB7A042B00F29C8001A252F80E
:102CE00023F000BFF92C0008392D0008832D0008BF
:102CF000BF2D0008FB2D00087B68002B08D0FB6867
:102D00009B6901225A72FB689B6901221A7407E0D1
:102D1000FB689B6900225A72FB689B6900221A7447
:102D2000FB689B695A69FB689B690C33194610461E
:102D300003F0F6FB00236FE07B68002B1ED07B685E
:102D4000FF2B1BD8FB689B697A68D2B21A72FB68AA
:102D50009B691846FFF750FDFB689B695A89FB6821
:102D60009B69DA60FB689B695A69FB689B690C3355
:102D70001946104603F0D4FB00234DE04FF0FF331B
:102D80004AE07B68002B17D07B68002B04D0FB68DF
:102D90009B690122DA7403E0FB689B690022DA7404
:102DA000FB689B695A69FB689B690C33194610469E
:102DB00003F0B6FB00232FE04FF0FF332CE07B68DD
:102DC000002B17D07B68002B04D0FB689B69022284
:102DD000DA7403E0FB689B690022DA74FB689B6984
:102DE0005A69FB689B690C331946104603F098FB3F
:102DF000002311E04FF0FF330EE07B68022B06D872
:102E0000FB689B697A68D2B21A76002304E04FF01F
:102E1000FF3301E04FF0FF3318461037BD4680BD49
:102E200080B582B000AF78600021786800F09CF82F
:102E30007B689B69B3F900301846FFF77CFE00BF42
:102E40000837BD4680BD80B584B000AF786039607A
:102E50000023FB817B689B695B7A002B37D007F1ED
:102E6000080340F2EB3118460EF09AF97B689B6933
:102E70005B69184603F05FFC03461AB27B689B69E6
:102E80005B891BB2DB431BB213401BB2FB817B6827
:102E90009B69B3F900309BB203F00F033A6802FA62
:102EA00003F39AB27B689B695B8913409AB2FB89F2
:102EB0001343FB817B689B695B69FA89114618465D
:102EC00003F07CFC07F1080318460EF079F900BF07
:102ED0001037BD4680BD80B582B000AF78607B689A
:102EE0009B695B7A002B17D07B689B695B691846EE
:102EF00003F021FC03461A467B689B695B891340FB
:102F00009BB21A467B689B69B3F900309BB203F011
:102F10000F0322FA03F316E07B689B695B6918468E
:102F200003F0E2FB03461A467B689B695B8913400A
:102F30009BB21A467B689B69B3F900309BB203F0E1
:102F40000F0322FA03F318460837BD4680BD80B44C
:102F500083B000AF78607B689B695B7E18460C3756
:102F6000BD465DF8047B704780B584B000AF7860E3
:102F70000B46FB707B689B69B3F90030B3F1FF3FF0
:102F800000F0A4807B689B69B3F90030002B00DA65
:102F90000F331B111BB2FB737B689B69B3F90030C5
:102FA0005A4203F00F0302F00F0258BF53421BB204
:102FB000BB73BB7BBB60FB78002B5BD0464ABB6816
:102FC00052F823207B689B699A4200F08180424A34
:102FD000BB6852F82330002B48D17B689B691B7A71
:102FE000012B03D93D48FDF7C3FB72E0BA7BFB7BA5
:102FF0001146184606F03CFD7B689B691B7E012B41
:1030000004D07B689B691B7E002B08D1344B9A68E7
:10301000BB7B012101FA03F3314913438B607B68C9
:103020009B691B7E022B04D07B689B691B7E002B57
:1030300008D12B4BDA68BB7B012101FA03F3284945
:103040001343CB607B689A692349BB6841F823200E
:103050007B689B6900225A76214B1A68BB7B012151
:1030600001FA03F31E4913430B6032E01D48FDF7DC
:103070007FFB2EE0184ABB6852F823207B689B69CF
:103080009A4226D1164B1A68BB7B012101FA03F341
:10309000DB43134913400B60114B9A68BB7B012142
:1030A00001FA03F3DB430E4913408B600C4BDA68E3
:1030B000BB7B012101FA03F3DB4309491340CB60D9
:1030C000054ABB68002142F8231002E000BF00E07F
:1030D00000BF1037BD4680BD94A6002060230108C4
:1030E000003C0140C023010880B483B000AF786089
:1030F0007B689B6900225A7600BF0C37BD465DF89D
:10310000047B704780B500AF064B1B68002B04D0D2
:10311000044B1B681846FFF7ACFB0620FFF7EAFAE2
:1031200000BF80BD94A6002080B500AF064B5B6851
:10313000002B04D0044B5B681846FFF79AFB07206E
:10314000FFF7D8FA00BF80BD94A6002080B500AF7D
:10315000064B9B68002B04D0044B9B681846FFF776
:1031600088FB0820FFF7C6FA00BF80BD94A60020A8
:1031700080B500AF064BDB68002B04D0044BDB6846
:103180001846FFF776FB0920FFF7B4FA00BF80BDB1
:1031900094A6002080B500AF064B1B69002B04D01D
:1031A000044B1B691846FFF764FB0A20FFF7A2FADD
:1031B00000BF80BD94A6002080B582B000AF144B44
:1031C0005B693B6005237B607B68092B18DC3A68F0
:1031D0007B6822FA03F303F00103002B0CD00D4AA5
:1031E0007B6852F82330002B06D00A4A7B6852F8DD
:1031F00023301846FFF73DFB7B6801337B60E3E734
:103200001720FFF777FA00BF0837BD4680BD00BF23
:10321000003C014094A6002080B582B000AF144B62
:103220005B693B600A237B607B680F2B18DC3A6884
:103230007B6822FA03F303F00103002B0CD00D4A44
:103240007B6852F82330002B06D00A4A7B6852F87C
:1032500023301846FFF70DFB7B6801337B60E3E703
:103260002820FFF747FA00BF0837BD4680BD00BFE2
:10327000003C014094A6002090B585B002AF786074
:103280000B46FB707B681846FCF782FF254A7B687B
:103290001A60FB78002B01D10123FB70FB78032B14
:1032A00001D90323FB70FB785A1E13465B001344BD
:1032B0001B011D4A1344194630200DF065FF0446DA
:1032C000FB78194620460DF09FFF7B689C61FB78D8
:1032D000022B0DD0032B15D0012B1DD17B689869D3
:1032E000FA78192300931623796800F071FF14E02F
:1032F0007B689869FA781B2300931A23796800F099
:1033000067FF0AE07B689869FA782923009308230D
:10331000796800F05DFF00E000BF7B6818460C375D
:10332000BD4690BD74250108D4A6002090B587B095
:1033300002AFF860084611461A460346FB720B4678
:103340003B811346FB80FB681846FCF721FF194AB6
:10335000FB681A60FB7A002B01D10123FB72FB7A18
:10336000032B01D90323FB72FB7A5A1E13465B0021
:1033700013441B01104A1344194630200DF004FF7A
:103380000446FB7A194620460DF03EFFFB689C611F
:10339000FB689869B7F90810FA7AB7F90630009314
:1033A0000B46F96800F014FFFB6818461437BD4659
:1033B00090BD00BF74250108D4A6002080B588B058
:1033C00000AF78603960786800F08EF83B68002BB9
:1033D00003D03B68424A934205D94248FDF7C8F9F9
:1033E0004FF0FF3378E07B689B693A689A627B68AC
:1033F0009B699B680121184604F048FE7B689B6925
:103400005A697B689B691B6A13430121184604F0C3
:10341000DDFD7B689B6918697B689B691B7E99B29F
:103420007B689B6993F825301A4603F0E8F97B68BE
:103430009B69D8697B689B6993F8243099B27B6853
:103440009B6993F825301A4603F0D9F97B689B698C
:103450009B89BB6102233B7700237B770123BB77EA
:103460000023FB777B689B691B6907F118021146F3
:10347000184603F055F87B689B695B8BBB617B68E2
:103480009B69DB6907F118021146184603F048F8FA
:103490000023BB814BF6FF73FB817B689B69DB8C50
:1034A0003B824FF480637B824FF48043BB827B6816
:1034B0009B699B6ABB607B689B695B6807F108023C
:1034C0001146184603F01EFA7B689B695B68012170
:1034D000184603F0F8FA002318462037BD4680BD91
:1034E000002D3101102501082DE9F04F87B000AF04
:1034F00078607B689B695B680021184603F0E3FAFB
:103500007B689B695B68184603F0C2F97B689B691E
:103510009B680021184604F0B9FD07F10C0318461A
:1035200003F08CF87B689B699B89FB6000237B74AC
:103530000123BB740023FB747B689B691A697B6859
:103540009B699B891946104603F002F901233B74DD
:103550007B689B691B6907F10C021146184602F053
:10356000DFFFFCF79DFF0346002B4BD00CF0CCFD9A
:103570000A460146374B4FF0000411EB030A42EBB9
:10358000040B00225046594602F0EAFA00237B6100
:103590007B69072B36DC7B689B691A697B689B69B2
:1035A0009B891946104603F0E2F80CF0ADFD0A467F
:1035B0000146284B4FF0000411EB030842EB0409CD
:1035C00000224046494602F0CBFA7B689B691A69A3
:1035D0007B689B699B891946104603F0B9F80CF08B
:1035E00093FD0A4601461B4B4FF00004CD1842EBF9
:1035F000040600222846314602F0B2FA7B69013304
:103600007B61C5E700233B747B689B691B6907F1FD
:103610000C021146184602F083FF7B689B695B8BA6
:10362000FB607B689B69DB6907F10C021146184659
:1036300002F076FF7B689B691A697B689B699B89AE
:103640001946104603F093F800BF1C37BD46BDE88D
:10365000F08F00BF40420F0080B483B000AF7860AD
:10366000012318460C37BD465DF8047B704780B4D3
:1036700083B000AF7860012318460C37BD465DF873
:10368000047B704780B586B000AFF8607A603B601D
:103690000B46FB723B68002B01D100231FE0FB6847
:1036A0009B6993F82C30002B10D0FB689869F97A4D
:1036B0003B687A6800F074F97861FA68FB681B6807
:1036C00014331B68104698477B6908E0FA68FB686A
:1036D0001B6814331B68104698476FF005031846A3
:1036E0001837BD4680BD80B586B000AFF8607A60FF
:1036F0003B600B46FB723B68002B01D100231FE0AF
:10370000FB689B6993F82C30002B10D0FB689869FC
:10371000F97A3B687A6800F05FFA7861FA68FB68CA
:103720001B6818331B68104698477B6908E0FA68E5
:10373000FB681B6818331B68104698476FF0050339
:1037400018461837BD4680BDF0B589B000AFF860A7
:103750007A603B600B46FB720023FB610023BB6178
:10376000FB689B6993F82C30002B60D0FB6898694C
:10377000F97A3B687A6800F075F8F861FB69002B0C
:1037800008DAFA68FB681B6818331B68104698470C
:10379000FB695EE0FB689B695B680121184603F0EA
:1037A000F4F90CF0B1FCC7E90401FB689B695B68A4
:1037B0002A49184603F098FC0346012B14BF012345
:1037C0000023DBB2002B1ED00CF09EFC0A46014603
:1037D000D7E90434CD1A62EB0406214B4FF0000404
:1037E000AB4274EB0603B4BF01230023DBB2002B12
:1037F000DBD0FA68FB681B6818331B6810469847D3
:103800004FF0FF3325E0FB689869F97AFB6BBA6BE0
:1038100000F006FAB861BB69002B12DAFA68FB689F
:103820001B6818331B6810469847BB6911E0FA689B
:10383000FB681B6818331B68104698476FF0050338
:1038400007E0FA68FB681B6818331B681046984746
:10385000BB6918462437BD46F0BD00BF0100030018
:1038600080841E002DE9F04389B000AFF8607A60D3
:103870003B600B46FB723B68002B01D1002381E0CB
:10388000F86800F0B4F80346DB0FDBB2002B02D07F
:103890004FF0FF3376E0FB7A00221946F86800F01B
:1038A0004DF90346DB0FDBB2002B02D06FF00403AF
:1038B00068E00023FB61FA693B689A4237D20CF05A
:1038C00023FCC7E90401FB685B683149184603F033
:1038D0000BFC0346002B0CBF01230023DBB2002BA3
:1038E00018D00CF011FC0A460146D7E90434B1EBBC
:1038F000030862EB0409274B4FF00004434574EBC7
:103900000903B4BF01230023DBB2002BDBD06FF02F
:10391000020337E0FB6858687A68FB6913441B7838
:10392000194603F0D7FAFB690133FB61C3E70CF0DA
:10393000EBFBC7E90401FB685B681749184603F015
:10394000D3FB0346002B0CBF01230023DBB2002B6B
:1039500017D00CF0D9FB0A460146D7E90434CD1A3A
:1039600062EB04060D4B4FF00004AB4274EB060310
:10397000B4BF01230023DBB2002BDCD06FF00203C5
:1039800000E03B6818462437BD46BDE8F08300BF21
:103990008000070080841E00840007008096980045
:1039A00080B586B000AFF8607A603B600B46FB7272
:1039B000F97A3B687A68F868FFF754FF78617B69A9
:1039C000002B01DC7B690EE0F86800F07DF803460F
:1039D000002B14BF01230023DBB2002B02D06FF0B9
:1039E000010300E07B6918461837BD4680BD2DE90C
:1039F000F04385B000AF78600CF086FBC7E90201A8
:103A00007B685B684FF40031184603F0BFFB034648
:103A1000002B14BF01230023DBB2002B18D00CF0C5
:103A200073FB0A460146D7E90234B1EB030862EBA7
:103A30000409224B4FF00004434574EB0903B4BF63
:103A400001230023DBB2002BDAD04FF0FF3330E04C
:103A50007B685B680121184603F097F80CF054FB73
:103A6000C7E902017B685B681549184603F03CFB17
:103A70000346012B14BF01230023DBB2002B17D018
:103A80000CF042FB0A460146D7E90234CD1A62EB3C
:103A900004060C4B4FF00004AB4274EB0603B4BFBA
:103AA00001230023DBB2002BDCD04FF0FF3300E01A
:103AB000002318461437BD46BDE8F0838096980071
:103AC0000100030080841E00F0B585B000AF78606F
:103AD0007B685B680121184603F077F80CF014FB53
:103AE000C7E902017B685B681B889BB203F4007323
:103AF000002B14BF01230023DBB2002B17D00CF0E6
:103B000003FB0A460146D7E90234CD1A62EB0406EC
:103B1000094B4FF00004AB4274EB0603B4BF012322
:103B20000023DBB2002BDDD06FF0010300E00023A7
:103B300018461437BD46F0BD80841E00F0B587B02E
:103B400000AF78600B46FB701346BB707B6858680B
:103B5000FB785B00DBB2BA78194603F056F8BB7805
:103B6000012B02D1194B7B6101E0194B7B610CF0F9
:103B7000CBFAC7E902017B685B687969184603F0F4
:103B8000B3FA0346012B14BF01230023DBB2002B41
:103B900017D00CF0B9FA0A460146D7E90234CD1A1B
:103BA00062EB04060B4B4FF00004AB4274EB0603D0
:103BB000B4BF01230023DBB2002BDCD06FF0040381
:103BC00000E0002318461C37BD46F0BD020003008C
:103BD0008200070080841E0080B584B000AFF860CA
:103BE0007A603B600B46FB723B68002B01D10023DF
:103BF00012E0F868FFF7FBFE0346DB0FDBB2002B99
:103C000002D04FF0FF3307E0F97A3B687A68F86832
:103C100000F006F8034600BF18461037BD4680BDC9
:103C20002DE9F04F9BB000AFF8647A643B640B461B
:103C300087F84B303B6C002B01D10023BAE297F898
:103C40004B3001221946F86CFFF778FF0346DB0F73
:103C5000DBB2002B02D06FF00403ABE23B6C012B14
:103C600072D1FB6C5B680021184602F0ECFFFB6C24
:103C70005B681B8BFB6C5B680121184602F0A5FF9B
:103C80000CF042FAC7E91401FB6C5B68B0491846B6
:103C900003F07CFA0346002B0CBF01230023DBB2A8
:103CA000002B18D00CF030FA0A460146D7E914343C
:103CB000B1EB030862EB0409A64B4FF00004434547
:103CC00074EB0903B4BF01230023DBB2002BDBD06C
:103CD0006FF003036EE2FB6C5B68184603F00AF9B1
:103CE00003461A467B6C1A700CF00EFAC7E91401F1
:103CF000FB6C5B681B889BB203F40073002B14BF42
:103D000001230023DBB2002B17D00CF0FDF90A468B
:103D10000146D7E91434CD1A62EB04068D4B4FF0FF
:103D20000004AB4274EB0603B4BF01230023DBB2F3
:103D3000002BDDD06FF001033CE2FB6C5B680121DE
:103D4000184602F080FF2EE23B6C022B40F0C3804D
:103D5000FB6C5B680021184602F075FFFB6C5B682A
:103D60001B889AB2FB6C5B6842F4006292B21A80C4
:103D7000FB6C5B681B8B0CF0C7F9C7E91401FB6C8B
:103D80005B687549184603F001FA0346002B0CBF27
:103D900001230023DBB2002B1BD00CF0B5F90A463F
:103DA0000146D7E91434C81AB86362EB0403FB6315
:103DB000684B4FF00004D7E90E128B4274EB0203FC
:103DC000B4BF01230023DBB2002BD8D06FF0030374
:103DD000F0E1FB6C5B680121184602F0F6FE00235F
:103DE0007B667B6E012B3BD80CF08EF9C7E9140182
:103DF000FB6C5B685649184603F0C8F90346002B74
:103E00000CBF01230023DBB2002B1BD00CF07CF98C
:103E10000A460146D7E91434C81A386362EB040332
:103E20007B634C4B4FF00004D7E90C128B4274EBD0
:103E30000203B4BF01230023DBB2002BD8D06FF004
:103E40000303B7E1FB6C59687A6C7B6ED4180846A3
:103E500003F050F8034623707B6E01337B66C0E7A6
:103E60000CF052F9C7E91401FB6C5B681B889BB22C
:103E700003F40073002B14BF01230023DBB2002BDB
:103E800018D00CF041F90A460146D7E91434B1EBD9
:103E9000030A62EB040B2F4B4FF00004534574EB05
:103EA0000B03B4BF01230023DBB2002BDCD06FF087
:103EB00001037FE1FB6C5B680121184602F0C3FE41
:103EC000FB6C5B681B889AB2FB6C5B6822F4006237
:103ED00092B21A8067E13B6C022B40F26481FB6C6A
:103EE0005B681B8B00233B663B6C033B3A6E9A423C
:103EF00042D20CF009F9C7E91401FB6C5B68144964
:103F0000184603F043F90346002B0CBF012300239E
:103F1000DBB2002B22D00CF0F7F80A460146D7E9B5
:103F20001434C81AB86262EB0403FB62094B4FF009
:103F30000004D7E90A128B4274EB0203B4BF0123D9
:103F40000023DBB2002BD8D06FF0030332E100BFB7
:103F50004000001080841E0004000010FB6C5968B3
:103F60007A6C3B6ED418084602F0C4FF03462370F7
:103F70003B6E01333B66B7E70CF0C6F8C7E91401A6
:103F8000FB6C5B688E49184603F000F90346002B72
:103F90000CBF01230023DBB2002B1BD00CF0B4F8C4
:103FA0000A460146D7E91434C81A386262EB0403A2
:103FB0007B62844B4FF00004D7E908128B4274EB0C
:103FC0000203B4BF01230023DBB2002BD8D06FF073
:103FD0000303EFE0FB6C5B680021184602F033FE40
:103FE0000CF092F8C7E91401FB6C5B68764918463F
:103FF00003F0CCF80346002B0CBF01230023DBB2F7
:10400000002B1BD00CF080F80A460146D7E9143487
:10401000C81AB86162EB0403FB616A4B4FF00004FD
:10402000D7E906128B4274EB0203B4BF01230023CD
:10403000DBB2002BD8D06FF00303BBE0FB6C5968F8
:104040003B6C033B7A6CD418084602F053FF0346DE
:1040500023700CF059F8C7E91401FB6C5B685849F0
:10406000184603F093F80346002B0CBF01230023EE
:10407000DBB2002B1BD00CF047F80A460146D7E90B
:104080001434C81A386162EB04037B614D4B4FF066
:104090000004D7E904128B4274EB0203B4BF01237E
:1040A0000023DBB2002BD8D06FF0030382E0FB6C5F
:1040B0005B680121184602F088FD0223FB65FB6D59
:1040C000002B3DD00CF020F8C7E91401FB6C5B68B5
:1040D0003D49184603F05AF80346002B0CBF012354
:1040E0000023DBB2002B1BD00CF00EF80A46014671
:1040F000D7E91434C81AB86062EB0403FB60314B93
:104100004FF00004D7E902128B4274EB0203B4BFF4
:1041100001230023DBB2002BD8D06FF0030349E06A
:10412000FB6C59683A6CFB6DD31A7A6CD41808464C
:1041300002F0E0FE03462370FB6D013BFB65BEE72A
:104140000BF0E2FFC7E91401FB6C5B681B889BB2B4
:1041500003F40073002B14BF01230023DBB2002BF8
:104160001BD00BF0D1FF0A460146D7E91434C81A18
:10417000386062EB04037B60124B4FF00004D7E918
:1041800000128B4274EB0203B4BF01230023DBB2A5
:10419000002BD9D06FF001030CE0FB6C5B680121B0
:1041A000184602F050FDFB6C5B680849184603F0A6
:1041B00020F83B6C18466C37BD46BDE8F08F00BF59
:1041C0000400001080841E00400000100004001055
:1041D00080B584B000AFF860B96011461A460B464E
:1041E000FB711346BB80FB68012283F82C20FB790E
:1041F000022B0FD0032B19D0012B23D1FB68364A99
:104200005A60FB684FF400129A60FB68042283F83E
:10421000252018E0FB68314A5A60FB684FF48002A1
:104220009A60FB68042283F825200CE0FB682C4A86
:104230005A60FB684FF400029A60FB68042283F81E
:10424000252000E000BFB7F904301846FEF7BEFB9A
:104250000246FB681A61FB681B691846FEF74CFBB7
:104260000246FB685A61B7F904301846FEF702FCB3
:1042700003461A46FB689A81FB689B891846FEF73D
:104280001FFB03461A46FB681A76B7F91830184622
:10429000FEF79CFB0246FB68DA61FB68DB691846A7
:1042A000FEF72AFB0246FB681A62B7F91830184677
:1042B000FEF7E0FB03461A46FB685A83FB685B8BFC
:1042C0001846FEF7FDFA03461A46FB6883F82420D9
:1042D00000BF1037BD4680BD00540040005800406C
:1042E000005C0040B0B582B000AF786039607B6898
:1042F000012B0FD13B684FF6FF7293420AD1074B57
:1043000002241D46002C05DB28460CF08DFF3035BD
:10431000013CF7E700BF0837BD46B0BDD4A600207A
:1043200080B500AF4FF6FF710120FFF7DBFF80BDC6
:1043300080B400AF034B1B781846BD465DF8047B84
:10434000704700BF2CB0002080B400AF41F653335B
:104350001846BD465DF8047B704780B400AF034B40
:104360001846BD465DF8047B704700BF7011010020
:1043700080B400AF4CF250331846BD465DF8047B64
:10438000704780B400AF034B1846BD465DF8047B10
:10439000704700BF9026010880B400AF024B18465A
:1043A000BD465DF8047B7047A426010800000000AC
:1043B00080B483B000AF03463960FB7197F90730D2
:1043C000002B0DDA3B68DAB20E4997F90730DBB201
:1043D00003F00F03043B1201D2B20B441A760BE038
:1043E0003B68DBB2084A97F9071008461B01D9B2AF
:1043F00013180A4683F8002300BF0C37BD465DF84A
:10440000047B704700ED00E000E100E080B584B07F
:1044100000AF1B4B00221A70FF216FF00100FFF765
:10442000C7FFFF214FF0FF30FFF7C2FF00F04AFF48
:1044300000F080F90246134B1A60134B1B68134AB5
:1044400013604FF4E131124808F044F900F05AFCCF
:104450003B46184603F008FC3B680E4AA2FB0323C8
:104460009B0C19460C48FCF703F90121072001F0C9
:104470003DFE00F013F800BF1037BD4680BD00BF01
:1044800068A6002088A70020107AFF1F3C000020AB
:104490006CA7002083DE1B43A827010880B584B0E9
:1044A00000AF01214FF0805003F0F0FD012003F038
:1044B0003BF8012003F076FA612003F08DFF0346FC
:1044C000002B0CBF01230023DBB2002B00D0F3E74D
:1044D0004FF4007003F072FC012003F09DFC04F027
:1044E0001FF9002004F06CFD01214FF4804005F01D
:1044F0008DF94FF4800001F051FF4FF48003BB6051
:1045000000233B7308237B730123BB7307F108036C
:10451000184601F065FE03233B7100237B710023E5
:10452000BB710123FB713B1D184602F039FF00BF30
:104530001037BD4680BD80B500AF034B01221A7015
:10454000002000F038F8FEE710B0002080B400AF83
:1045500072B600BFBD465DF8047B704780B400AF03
:1045600062B600BFBD465DF8047B7047DFF8DC141F
:104570000868B0E8F04F80F30988704700BF71B653
:10458000EFF309801EF0100F08BF20ED108A20E91C
:10459000F04F01F0E9F8DFF8B4140868B0E8F04F24
:1045A0001EF0100F08BFB0EC108A80F3098861B6C6
:1045B000704700BF00BFB0B588B000AF786045F26B
:1045C000555002F071FE0023FB617B68B3F57A7FE2
:1045D00005DA022002F078FE1023FB6105E00620D8
:1045E00002F072FE4FF48073FB61214B1B6818468A
:1045F0000AF0EAFC04460D46F8690AF0E5FC0246BA
:104600000B46204629460AF083FE03460C46C7E9BE
:10461000043478680AF0E8FC4FF00002154B0AF009
:1046200077FE03460C46C7E90234D7E90423D7E9ED
:1046300002010AF043FD03460C46184621460AF0E3
:10464000FFFF0346BB61BB69B3F5805F02D340F651
:10465000FF73BB61BB699BB2184602F045FE02F0D6
:1046600053FE02F05FFE00BF2037BD46B0BD00BF65
:1046700088A7002000408F4080B500AF02F044FEC4
:1046800000BF80BD80B500AF10211A4806F002FDC2
:104690000346002B14BF01230023DBB2002B26D0DE
:1046A000154B1B68012B0BD8124806F066FB124B0A
:1046B0001B685A1C10490A6081B2104A22F8131074
:1046C00010210C4806F010FD0B4B1B68012B0ED976
:1046D0000A4B5A88094B1B88D31A9BB21A46084BBF
:1046E0001A60054B00221A60064B01221A7000BFA7
:1046F00080BD00BF000C004094A7002098A70020B8
:104700008CA7002090A7002080B400AF00BFBD465A
:104710005DF8047B704780B500AF054B1B68002B2C
:1047200002D1FFF7AFFF01E0FFF7EEFF00BF80BD52
:1047300088A7002080B588B000AF414B1B68002BD4
:1047400002D03F4B1B6876E03E4B00221A603E4B86
:1047500000221A703D4B00221A60012003F022F95A
:10476000612003F039FE0346002B0CBF0123002318
:10477000DBB2002B00D0F3E70121082003F086FC18
:104780004021334806F0C5FE01220021304805F0E3
:1047900051FB0C233B8200237B820123BB820C2331
:1047A000FB8200233B8307F110031946284806F0DB
:1047B000F7F932233B7700237B770023BB77012374
:1047C000FB7707F11C03184602F0EAFD012120489F
:1047D00005F02DFC1E4B00221A82012210211C48DC
:1047E00006F0F8FB184B1B78DBB283F00103DBB259
:1047F000002B00D0F6E7164805F0B6F93B46184600
:1048000003F032FA134B9B6803F4E053002B0CBF08
:1048100001230023DBB2002B06D0BA68094B1B68CA
:10482000B2FBF3F3DB0006E0BB685A00054B1B68E4
:10483000B2FBF3F3DB0018462037BD4680BD00BF56
:1048400088A700208CA7002090A7002094A7002014
:10485000000C00400038024080B400AF30BF00BF01
:10486000BD465DF8047B7047F0B589B000AFC7E97D
:1048700000010BF049FC0A460146D7E900348B429F
:1048800074EB0203B4BF01230023DBB2002B69D118
:10489000394B1B68384A23F002031360374B1B68FF
:1048A000FB61364B9B68BB61344B5B687B61334B70
:1048B0001B6F324A43F001031367304B1B6F2F4AC3
:1048C00043F4004313672E4B4FF480025A610120DA
:1048D00002F090FF0BF018FC0A460146D7E90034BD
:1048E0005D1A64EB0206284631460AF0B9FB20A3A4
:1048F000D3E900230AF00CFD03460C461846214676
:104900004FF000021F4B0AF003FD03460C46184609
:1049100021460BF057FA03460C46C7E90234BB6840
:10492000184604F06FFB012004F090FB164AD7E90B
:104930000034C2E900340121012002F0BBFE002056
:1049400004F084FB0D4AFB6913600C4ABB69936059
:104950000A4A7B695360084B1B68074A43F002030D
:10496000136000E000BF2437BD46F0BDAFF3008008
:104970000000000080842E4110E000E0003802407A
:10498000003C01400000E03FA0A7002098B500AF28
:104990004FF4804004F0B2FF0346002B14BF012304
:1049A0000023DBB2002B1BD00E4BD3E90034012BCC
:1049B00074F1000305DB0B4BD3E900340A4AC2E96A
:1049C0000034084A4FF000034FF00004C2E90034FD
:1049D0004FF4804004F0C6FF4FF4800001F0DEFC8D
:1049E00000BF98BDA0A70020A8A7002080B584B074
:1049F00002AF786039607B68012B15D13B684FF6B8
:104A0000FF72934210D14FF0FF3301934FF0FF3309
:104A10000093392338220321054807F037FC054A63
:104A2000054903480DF0C8F800BF0837BD4680BDF2
:104A30006CA7002008B000204112010880B500AF2B
:104A40004FF6FF710120FFF7D1FF80BD68A700205E
:104A500080B483B000AF0346FB7197F9073003F0D1
:104A60001F02074997F907305B09012000FA02F29B
:104A700041F8232000BF0C37BD465DF8047B70472A
:104A800000E100E080B483B000AF0346FB7197F90A
:104A90000730DBB203F01F02074997F907305B09C3
:104AA000012000FA02F2603341F8232000BF0C37E6
:104AB000BD465DF8047B704700E100E080B483B040
:104AC00000AF03463960FB7197F90730002B0DDA10
:104AD0003B68DAB20E4997F90730DBB203F00F03F7
:104AE000043B1201D2B20B441A760BE03B68DBB2F6
:104AF000084A97F9071008461B01D9B213180A464D
:104B000083F8002300BF0C37BD465DF8047B704777
:104B100000ED00E000E100E090B583B000AF164B7F
:104B20001B7883F00103DBB2002B1ED10BF0ECFAF3
:104B3000C7E90001D7E9000107F054F80BF0E4FAE7
:104B40000A4601460D4BD3E90034994272EB040347
:104B5000B4BF01230023DBB2002B08D1084B5B68F4
:104B6000074A43F08053536002E000BF00E000BFFB
:104B70000C37BD4690BD00BF24000020E0A70020F8
:104B800000ED00E080B582B000AF78607B68B3F1E3
:104B9000807F01D301230EE07B6823F07F43084A26
:104BA000013B53600F214FF0FF30FFF787FF044BAD
:104BB00000229A60002318460837BD4680BD00BF1A
:104BC00010E000E080B400AF044B03221A60002321
:104BD0001846BD465DF8047B704700BF10E000E05A
:104BE00080B400AF044B00221A6000231846BD4673
:104BF0005DF8047B704700BF10E000E0B0B500AF87
:104C00000E4B1B68DB0819464FF000020C4BD3E932
:104C1000003403FB02F501FB04F00544A1FB030192
:104C20006B181946074A4FF000030BF063F8034670
:104C30000C461846FFF7A6FF00BFB0BD10000020CD
:104C40000800002040420F00B0B500AF0F4B1B68BA
:104C5000DB0819464FF000020D4BD3E9003403FB8B
:104C600002F501FB04F00544A1FB03016B18194692
:104C7000084A4FF000030BF03DF803460C46184677
:104C8000FFF780FFFFF79EFF00BFB0BD10000020C0
:104C90000800002040420F0080B500AFFFF7A0FFE2
:104CA00000BF80BD90B482B000AFC7E90001054AE3
:104CB000D7E90034C2E9003400BF0837BD4690BCD4
:104CC000704700BF08000020F8B500AF01210A4876
:104CD00006F00AFA1A20FFF7D5FE084BD3E9003494
:104CE00007494FF000025D1844EB0206034BC3E98D
:104CF000005600BFF8BD00BF00480140A8A7002033
:104D00008096980080B588B000AF0023FB77012122
:104D10004FF4802003F0DAF900214FF4802003F0F3
:104D200075FA3B46184602F09FFF214804F01CFF2D
:104D30007A68FB68B2FBF3F3012B02D90223FB77FD
:104D400001E00123FB774EF660237B61FB68FA7F6D
:104D500002FB03F3174AA2FB0323DB0C9BB2013BCC
:104D60009BB23B8200237B8200233B830023BB76E4
:104D700007F1100319460E4804F0D6FF0122012165
:104D80000B4806F027F901214FF4802001F0AEF91D
:104D90000121074805F04BF9FF211A20FFF78EFE8D
:104DA0001A20FFF755FE00BF2037BD4680BD00BF6B
:104DB00000480140819F5E16F0B587B000AF002328
:104DC0007B614FF000034FF00004C7E90234284B29
:104DD000D3E90034C7E90234264805F077F8786152
:104DE000234BD3E90034D7E90212A24208BF99420B
:104DF00000D0ECE74FF000034FF00004C7E90034A7
:104E000019A4D4E90034C7E900347B694FF00004E9
:104E10007A6803FB02F13A6804FB02F20A4439683B
:104E2000A1FB033422441446C7E90034C7E9003427
:104E3000D7E90001104A4FF000030AF05BFF034678
:104E40000C46C7E90034D7E90212D7E90034CD187F
:104E500042EB04062B463446184621461C37BD4615
:104E6000F0BD00BFAFF30080AA21EF0900000000F1
:104E7000A8A700200048014040420F0090B400AFB6
:104E8000054A4FF000034FF00004C2E9003400BFB0
:104E9000BD4690BC704700BFA8A7002098B500AFE2
:104EA000FFF78AFF03460C461846214698BD00BF0F
:104EB00080B483B000AF78604FF0FF3318460C37F2
:104EC000BD465DF8047B704780B485B000AFF860E4
:104ED000B9607A60054B0C221A604FF0FF33184618
:104EE0001437BD465DF8047B704700BFCCD200206C
:104EF00080B400AF044B0B221A604FF0FF3318460A
:104F0000BD465DF8047B7047CCD2002080B483B0EE
:104F100000AF786039603B684FF400525A6000235C
:104F200018460C37BD465DF8047B704780B400AF6F
:104F300001231846BD465DF8047B704780B483B0FA
:104F400000AF7860012318460C37BD465DF8047B3E
:104F5000704780B483B000AF78603960054B16228B
:104F60001A604FF0FF3318460C37BD465DF8047BDE
:104F7000704700BFCCD2002080B483B000AF78600F
:104F80003960054B1F221A604FF0FF3318460C376B
:104F9000BD465DF8047B7047CCD2002080B485B05C
:104FA00000AFF860B9607A60002318461437BD4638
:104FB0005DF8047B704780B485B000AFF860B960DD
:104FC0007A604FF0FF3318461437BD465DF8047B16
:104FD000704780B485B000AFF860B9607A60002394
:104FE00018461437BD465DF8047B704780B485B021
:104FF00000AF7860144B1B68002B02D1124B134A90
:105000001A60114B1B68FB600F4B1A687B681A44CF
:105010000F4B1B785B420F490B449A4206D900BEE6
:105020000D4B0C221A604FF0FF3306E0064B1A6856
:105030007B681344044A1360FB6818461437BD4666
:105040005DF8047B704700BFB4A70020D0D20020D9
:105050000004000000000220CCD2002080B483B005
:1050600000AF78604FF0FF3318460C37BD465DF84F
:10507000047B704780B483B000AF7860054B022298
:105080001A604FF0FF3318460C37BD465DF8047BBD
:10509000704700BFCCD2002080B483B000AF7860EE
:1050A000054B0A221A604FF0FF3318460C37BD46F5
:1050B0005DF8047B704700BFCCD2002080B586B07D
:1050C00000AFF860B9607A6000237B617A697B6821
:1050D0009A420BD2BB681B78184600F02AF8BB68CE
:1050E0000133BB607B6901337B61EFE77B68184666
:1050F0001837BD4680BD80B584B000AFF860B96098
:105100007A603B603A687968B868FFF7D7FF034672
:1051100018461037BD4680BD80B582B000AF7860BC
:1051200039603868FFF762FF034618460837BD4606
:1051300080BD80B584B000AF78607B68FB73FB7B7B
:105140000A2B02D10D20FFF7F4FF00F063F80346AD
:1051500013F1100F0CBF01230023DBB2002B24D06E
:10516000FB7B1946164807F045FD0346B3F1FF3FA8
:105170000CBF01230023DBB2002B1BD0FBF790F9FF
:105180000346002B07D04FF0FF326FF000430C486E
:10519000FBF740F8E4E70A4807F0ABFD034683F06D
:1051A0000103DBB2002BDBD0F5E7FB7B194604489B
:1051B00008F074FAFB7B18461037BD4680BD00BF6F
:1051C0006CA7002080B584B000AF78607B68FB607E
:1051D000FB681B78002B07D0FB685A1CFA601B7811
:1051E0001846FFF7A6FFF3E7002318461037BD4621
:1051F00080BD80B400AFFEE780B400AF00BFBD4605
:105200005DF8047B704780B400AF00BFBD465DF819
:10521000047B704780B400AF044B5B68C3F30803A2
:10522000103B1846BD465DF8047B704700ED00E07A
:1052300080B500AFFFF7EEFF034619460148FDF7C2
:10524000FDF9FEE70428010880B500AF194B5B6843
:10525000184A23F080435360174BD3F88830164A1E
:1052600043F47003C2F88830144B1B68134A43F0B0
:1052700001031360114B00229A60104B1B680F4A08
:1052800023F0847323F4803313600C4B0C4A5A6070
:105290000A4B1B68094A23F480231360074B002242
:1052A000DA6000F08DF8044B4FF000629A6000BFA6
:1052B00080BD00BF30EF00E000ED00E000380240AC
:1052C0001030002480B487B000AF00233B6100237E
:1052D0007B610223FB600023BB6002237B60334BB6
:1052E0009B6803F00C033B613B69042B09D03B69CD
:1052F000082B0AD03B69002B3DD12D4B2D4A1A605B
:105300003DE02B4B2C4A1A6039E0284B5B689B0D23
:1053100003F00103BB60254B5B6803F03F037B6038
:10532000BB68002B0CD0244A7B68B2FBF3F31F4A06
:1053300052689209C2F3080202FB03F37B610BE09F
:105340001C4A7B68B2FBF3F3184A52689209C2F315
:10535000080202FB03F37B61144B5B681B0C03F038
:10536000030301335B00FB607A69FB68B2FBF3F374
:105370000F4A136003E00E4B0E4A1A6000BF0B4B3E
:105380009B681B0903F00F030C4AD35CDBB23B6143
:10539000074B1A683B6922FA03F3054A136000BF02
:1053A0001C37BD465DF8047B704700BF00380240E3
:1053B000100000200024F40000127A0014000020E5
:1053C00080B483B000AF00237B6000233B60694B57
:1053D0001B68684A43F480331360664B1B6803F410
:1053E00000333B607B6801337B603B68002B03D15B
:1053F0007B68B3F5A04FF0D15E4B1B6803F400331C
:10540000002B02D001233B6001E000233B603B689E
:10541000012B43D1574B1B6C564A43F08053136406
:10542000554B1B68544A43F440431360514B514A57
:105430009B6893604F4B9B684E4A43F400439360D4
:105440004C4B9B684B4A43F4A0539360494B4B4AE7
:105450005A60484B1B68474A43F08073136000BF93
:10546000444B1B6803F00073002BF9D0444B40F20F
:1054700005721A603F4B9B683E4A23F0030393601A
:105480003C4B9B683B4A43F00203936000BF394B9F
:105490009B6803F00C03082BF9D165E0354B1B6CBE
:1054A000344A43F080531364334B1B68324A43F44D
:1054B000004313602F4B1B6C2E4A43F08053136440
:1054C00000BF2C4B1B6803F00203002BF9D02A4BC2
:1054D0001B68294A43F080031360264B1B68254A4A
:1054E00023F08073136000BF224B1B6803F000732E
:1054F000002BF9D11F4B234A5A601E4B1B681D4AD3
:1055000043F08073136000BF1A4B1B6803F00073F5
:10551000002BF9D01A4B40F202721A60184B1B682C
:1055200003F00F03022B00D0FEE7124B9B68114AD9
:1055300043F00203936000BF0E4B9B6803F0080327
:10554000082BF9D10B4B9B680A4A23F0F0039360B8
:10555000084B9B68074A43F480539360054B9B6854
:10556000044A23F46043936000BF0C37BD465DF8E6
:10557000047B704700380240007000400854402708
:10558000003C02401054002780B483B000AF786024
:105590007B6800221A607B6800225A607B680022C8
:1055A0009A607B680022DA607B6818460C37BD463B
:1055B0005DF8047B704780B586B000AF786000F07E
:1055C000A7FA7861786900F089FA386107F10C036D
:1055D00040F2EB3118460BF0E3FD7B681B68002BB3
:1055E00006D07B681B687A699A4201D0012300E0EB
:1055F0000023002B2CD07B681B68184600F06EFA45
:1056000002463B699342CCBF01230023DBB2002B4F
:1056100005D07B681B683969184600F06BFA7B6817
:105620001B68002B06D07B681B687A699A4201D000
:10563000012300E00023002B07D07A684FF0FF30F1
:105640006FF0004100F08CFAE9E77B6800225A60B5
:105650007B687A691A607B683A699A607B685B68E4
:105660005A1C7B685A6007F10C0318460BF0A8FD22
:1056700000F0E0F900BF1837BD4680BD80B586B0A8
:1056800000AF786000F044FA786100233B617B68EA
:105690001B687A699A4214BF01230023DBB2002BF6
:1056A00040D17B685B685A1E7B685A607B685B6888
:1056B000002BCCBF01230023DBB2002B34D107F138
:1056C0000C0340F2EB3118460BF06AFD7B680022B8
:1056D0001A60786800F03CFC38613B69002B05D00B
:1056E0007B683A691A60386900F01EFA07F10C030A
:1056F00018460BF065FD7B689B681846FBF7C0FBFE
:105700007B6800229A603B69002B05D07B689B6810
:10571000002B01D1012300E00023002B05D000F075
:1057200089F902E000BF00E000BF1837BD4680BD28
:1057300080B400AF044B00221A7001231846BD4606
:105740005DF8047B704700BF2400002080B400AFE8
:10575000044B01221A7001231846BD465DF8047BF4
:10576000704700BF2400002080B582B000AF786091
:10577000044B1B687A681A6200F026F800BF0837ED
:10578000BD4680BDD004002098B500AF0B4B1A6811
:105790004FF000034FF00004C2E90A34074B1B68C6
:1057A000074A1360074B01221A70044B1B68184606
:1057B00000F078F908F024F800BF98BD2800002018
:1057C000D004002068A6002090B585B000AF1C4B27
:1057D000D3E90034591C44F10002194BC3E900120B
:1057E000184BD3E90034C7E90234D7E90234234324
:1057F00003D10AF089FCC7E90201124A4FF0000305
:105800004FF00004C2E900340F4B1B687B607B68DB
:10581000002B04D1D7E9020100F0C8FA78600A4BE6
:1058200000221A60064BD3E900347A68C2E91234C8
:10583000786800F037F900BF1437BD4690BD00BF4F
:10584000C8A70020D8A70020D0A7002090B400AFA0
:10585000034BD3E9003418462146BD4690BC70473F
:10586000C8A7002080B483B000AF786039607B683F
:10587000012B09D13B684FF6FF72934204D1054BCF
:1058800023F00703044A136000BF0C37BD465DF8E0
:10589000047B7047BCA70020C0A7002080B500AFE4
:1058A0004FF6FF710120FFF7DDFF80BD0000000013
:1058B00090B585B000AFF860B9607A603B60F86879
:1058C0000023BA682449FAF77FFD244AFB681A606E
:1058D000FB6800225A62FA684FF000034FF00004A0
:1058E000C2E90A34FB6800221A63FA684FF0FF33FA
:1058F0006FF00044C2E90E34FA684FF000034FF035
:105900000004C2E91034FA684FF000034FF00004BD
:10591000C2E91234FB683A685A61FB685B69184651
:10592000FAF7CAFD0246FB68DA61FB68DB691A46D2
:10593000FB685B691344043B23F007031A46FB68CA
:105940009A61FB687A685A62F86800F009F8FB68A7
:1059500018461437BD4690BDD40400205C2A0108C7
:1059600080B584B000AF78607B689B69FB607B6822
:10597000DB691A46FB689A4206DCFB68094A1A6032
:10598000FB68043BFB60F2E77B689B69796818461B
:1059900007F004FF02467B681A6200BF1037BD465D
:1059A00080BD00BFEFBEADDE90B583B000AF7860C4
:1059B0000F4A7B681A600F4B1B78002B01D0002424
:1059C0000CE07B6818460BF069FC034619460A4850
:1059D000FAF74EFE0948FAF7CBFE01247B68184619
:1059E000FAF730FD012C7B6818460C37BD4690BD98
:1059F0005C2A010810B00020782901087C290108E0
:105A000080B582B000AF78607868FFF7CDFF502195
:105A10007868FBF7DBF97B6818460837BD4680BD20
:105A200080B483B000AF786000BF0C37BD465DF82E
:105A3000047B704790B585B000AF174B1B7883F09F
:105A40000103DBB2002B20D10AF05EFBC7E90201A3
:105A5000D7E9020100F0AAF9786000F059F802468F
:105A60007B6893420CBF01230023DBB2002B0ED1D5
:105A70000A4A7B6813600A4AD7E90234C2E9003453
:105A8000FFF70AF907F0E0FE02E000BF00E000BF08
:105A90001437BD4690BD00BF24000020D0A70020D1
:105AA000D8A7002080B582B000AF7860094A7B6833
:105AB000136009484FF00001FFF7F4F8FFF7C4F84E
:105AC0007B681B6A184607F0B0FE00BF0837BD466A
:105AD00080BD00BFD0040020A086010080B483B048
