:020000040800F2
:10000000000002201DE600087DE600087DE60008ED
:100010007DE600087DE600087DE60008000000009F
:10002000000000000000000000000000358900080A
:100030007DE6000800000000478900080926000846
:100040007DE600087DE600087DE60008558D000885
:100050007DE600087DE60008ADCF0008D1CF00089E
:10006000F5CF000819D000083DD000087DE6000853
:10007000657600087DE600088D7500087DE60008BD
:100080001D760008457500087DE600087DE600083D
:100090007DE600087DE600087DE6000861D00008E6
:1000A0007DE600087DE60008B92700087DE6000827
:1000B0007DE600087DE600087DE600087DE6000894
:1000C0007DE600087DE600087DE600087DE6000884
:1000D0007DE600086D740008857400089D740008B2
:1000E000C1D000087DE600087DE600087DE6000836
:1000F0007DE600087DE600087DE600087DE6000854
:100100007DE600087DE60008DF8A00087DE600083D
:10011000B5740008CD7400087DE600087DE600088F
:100120007DE600087DE600087DE600087DE6000823
:100130007DE600087DE600087DE600087DE6000813
:100140007DE600087DE600087DE600087DE6000803
:10015000D57500087DE60008FD740008E574000808
:100160007DE600087DE600087DE600087DE60008E3
:100170007DE600087DE600087DE600087DE60008D3
:0C0180007DE600087DE600080000000895
:1001900080B582B000AF786039607B68012B07D1F1
:1001A0003B684FF6FF72934202D103480EF060F8AD
:1001B00000BF0837BD4680BD8000002080B500AF7D
:1001C0004FF6FF710120FFF7E3FF80BD80B584B0DB
:1001D00000AFF860B9607A603B600C4AFB681A6057
:1001E000FB683A681A61FB687A689A60084B1B687A
:1001F0005A1C07490A60FA68D360B968F86800F0C9
:1002000009F8FB6818461037BD4680BDF4F00008B9
:10021000D001002080B582B000AF786039603B68C3
:100220001A687B685A603B687A681A6000F038F890
:100230000346002B02D0034800F09AF900BF0837AC
:10024000BD4680BD80F0000880B582B000AF786008
:10025000084A7B681A60084B1B78002B03D10748BB
:1002600000F086F900E000BF7B6818460837BD46FD
:1002700080BD00BFF4F0000890AA0020D8F000086C
:1002800080B582B000AF78607868FFF7DDFF142199
:10029000786800F09BFC7B6818460837BD4680BD37
:1002A00080B400AF034B1B78DBB21846BD465DF847
:1002B000047B704700A2002080B584B000AF786056
:1002C0007B68073323F007037B607B68B3F5204F1F
:1002D00004D9154800F04CF9002321E0FFF7E0FFB6
:1002E0000346002B04D0114800F042F9002317E028
:1002F0000F4B1A687B681344B3F5204F04D30D48A5
:1003000000F036F900230BE0094B1B680A4A13443E
:10031000FB60074B1A687B681344054A1360FB684F
:1003200018461037BD4680BD48F10008A4F100080A
:10033000D8A1002000F20008D801002080B400AF4E
:1003400000BFBD465DF8047B70472DE9F04389B0DE
:1003500000AF0DF0A2FFC7E90401414BD3E900341F
:10036000D7E90412B1EB030862EB040940464946A1
:100370000DF00EF938A3D3E900230DF061FA03461E
:100380000C46C7E90234364AD7E90434C2E90034DE
:10039000344BD3E90012344BD3E90034CD1A62EB6D
:1003A0000406284631460DF0F3F803460C46C7E92B
:1003B00000342C4BD3E900342B4AC2E90034D7E98E
:1003C0000223D7E900010DF03BFA03460C4625460F
:1003D0001C4602F08AF8034618460DF09DF80246C6
:1003E0000B46204629460DF02BFA03460C461A46CA
:1003F00023464FF000001D490CF040FF03460C4619
:10040000C7E906344FF00002184BD7E906010DF09A
:100410007DFB0346002B04D04FF00003134CC7E9CB
:1004200006344FF000024FF00003D7E906010DF04B
:100430004FFB0346002B05D04FF000034FF00004A4
:10044000C7E90634D7E906010DF0B2FB03461846AA
:100450002437BD46BDE8F0830000000065CDCD41E6
:10046000E0A10020A0AA0020E8A100200000F03FA9
:100470000FB480B582B000AF184B1B68002B26D09C
:100480003B4618460DF040FF07F114037B60FFF771
:1004900007FF034683F00103DBB2002B05D03B4688
:1004A0003969184601F040FB0AE00D4802F0FBFDF7
:1004B0003B463969184601F037FB094802F056FE01
:1004C00002F019FC3B4618460DF0F0FE00E000BFBC
:1004D0000837BD46BDE8804004B0704740000020AA
:1004E000F0A100200EB480B585B000AF78607B68C5
:1004F000B3F1FF3F05D01C4B1A687B681340002BFB
:100500002AD007F1080318460DF0FEFE07F120037C
:10051000FB60FFF7C5FE034683F00103DBB2002B4F
:1005200006D007F10803F969184601F0FDFA0BE05F
:100530000E4802F0B8FD07F10803F969184601F00A
:10054000F3FA0A4802F012FE02F0D5FB07F10803A5
:1005500018460DF0ABFE00E000BF1437BD46BDE805
:10056000804003B0704700BF40000020F0A1002091
:1005700080B582B000AF78600C4A7B6813600C4B8A
:100580001B6801330A4A13600022796809480DF09C
:1005900034FF094B1B78002B03D079680748FFF71D
:1005A00067FF00BF0837BD4680BD00BF00000020C8
:1005B0007C0000208000002004000020A8F2000839
:1005C00080B586B000AFF860B9607A60BB683B6107
:1005D000F9680E48FFF74CFF00237B617A697B685E
:1005E0009A420BD23A697B6913441B781946084832
:1005F000FFF73EFF7B6901337B61EFE70548FFF7BB
:1006000037FF00BF1837BD4680BD00BFC8F20008E5
:10061000CCF20008D4F2000880B584B000AFF860D6
:10062000B9607A603B60084B1A68FB681340002B86
:1006300005D03A687968B868FFF7C2FF00E000BFEC
:100640001037BD4680BD00BF4000002080B487B099
:1006500000AFF860B9607A60BB68C3F12003FA6844
:1006600002FA03F3FB6000237B617A69BB689A425C
:1006700011D2FB68002B01DA312100E030217A68C9
:100680007B6913440A461A70FB685B00FB607B6958
:1006900001337B61E9E77A68BB68134400221A7072
:1006A0007B6818461C37BD465DF8047B704790B5E3
:1006B0008BB000AFF860B9607A603B6007F114035B
:1006C000BA68F96818460DF02FFE3B68BB61FFF76A
:1006D000E7FD034683F00103DBB2002B06D007F1F0
:1006E00014037968184601F01FFA0BE00B4802F07A
:1006F000DAFC07F114037968184601F015FA074887
:1007000002F034FD7C6A07F1140318460DF02AFE4E
:10071000234618462C37BD4690BD00BFF0A10020EF
:100720000CB480B584B000AF7860396007F11C0369
:10073000BB60BB68BA6939687868FFF7B8FFF860D2
:10074000FB6818461037BD46BDE8804002B07047D0
:100750000EB480B585B000AF786007F12003FB6070
:10076000FB68FA694FF47A717868FFF7A0FF00BF61
:100770001437BD46BDE8804003B0704780B582B0F5
:1007800000AF786039607B68012B07D13B684FF67A
:10079000FF72934202D1034802F06EFC00BF08379B
:1007A000BD4680BDF0A1002080B500AF4FF6FF71BF
:1007B0000120FFF7E3FF80BD80B485B000AF786013
:1007C0000023FB607B68002B01D100230BE07B68DA
:1007D0001B78002B06D0FB680133FB607B6801337C
:1007E0007B60F4E7FB6818461437BD465DF8047B70
:1007F000704780B485B000AF786039600023FB603B
:100800007B68002B01D1002310E07B681B78002B54
:100810000BD0FB680133FB607B6801337B60FA68B7
:100820003B689A42F1D3FB6800E0FB681846143736
:10083000BD465DF8047B704780B485B000AF78603A
:1008400039607B68FB603B68002B02D0FB68002BA3
:1008500001D17B6812E03B681B78002B0AD03B6813
:100860001A78FB681A70FB680133FB603B68013340
:100870003B60F0E7FB6800221A707B68184614376B
:10088000BD465DF8047B704780B586B000AF7860E8
:1008900039603B685A1C3A601B78FB75FB7D002B66
:1008A00014BF01230023DBB2002B28D03868FFF7E8
:1008B00083FF38617B685A1C7A601B78FB73FB7B73
:1008C000002B0CBF01230023DBB2002B01D000233F
:1008D00016E0FA7BFB7D9A4200D0EBE73A69396873
:1008E000786800F029F90346002B14BF0123002388
:1008F000DBB2002B00D0DDE77B68013B7B607B68CF
:1009000018461837BD4680BD80B483B000AF78600C
:1009100039607B681B78002B09D07B681B781A46EE
:100920003B68934203D07B6801337B60F1E77B68CF
:100930001B781A463B68934201D17B6800E0002394
:1009400018460C37BD465DF8047B704780B487B00D
:1009500000AFF8600B467A60FB72FB68002B01D198
:10096000FB680FE0FB687B617B68002B09D07B692B
:10097000FA7A1A707B6901337B617B68013B7B608B
:10098000F2E7FB6818461C37BD465DF8047B7047EC
:1009900080B487B000AFF860B9607A60FB687B61B3
:1009A000BB683B617B69002B02D03B69002B01D106
:1009B000002311E07B68002B0DD03B691A787B691E
:1009C0001A707B68013B7B603B6901333B617B694B
:1009D00001337B61EEE7FB6818461C37BD465DF8C6
:1009E000047B704780B487B000AFF860B9607A606C
:1009F000FB687B61BB683B617B68002B1AD07B691D
:100A00001A783B691B789A4202D24FF0FF3312E00A
:100A10007B691A783B691B789A4201D901230AE065
:100A20007B6901337B613B6901333B617B68013B3F
:100A30007B60E1E7002318461C37BD465DF8047B68
:100A4000704780B487B000AFF860B9607A60FB6827
:100A50007B617B69002B02D0BB68002B01D1002396
:100A600019E07B68002B12D0BB681A787B691A707A
:100A7000BB681B78002B09D0BB680133BB607B6966
:100A800001337B617B68013B7B60EAE700BF7B69E8
:100A900000221A70FB6818461C37BD465DF8047BBF
:100AA000704780B582B000AF786039603868FFF772
:100AB00083FE034601331A4639687868FFF768FFFA
:100AC000034618460837BD4680BD80B485B000AFE8
:100AD000786039607B68002B07D13B68002B01D11F
:100AE000002323E04FF0FF3320E03B68002B01D1CF
:100AF00001231BE07B685A1C7A601B78FB733B6800
:100B00005A1C3A601B78BB73FA7BBB7B9A4202D2B9
:100B10004FF0FF330AE0FA7BBB7B9A4201D90123F5
:100B200004E0FB7B002B00D0E4E7002318461437D9
:100B3000BD465DF8047B704780B487B000AFF860B5
:100B4000B9607A60FB68002B07D1BB68002B01D12C
:100B500000232BE04FF0FF3328E0BB68002B01D1CE
:100B6000012323E0FB685A1CFA601B78FB75BB6805
:100B70005A1CBA601B78BB757B68002B01D100231F
:100B800014E07B68013B7B60FA7DBB7D9A4202D218
:100B90004FF0FF330AE0FA7DBB7D9A4201D9012371
:100BA00004E0FB7D002B00D0DCE7002318461C3757
:100BB000BD465DF8047B704780B483B000AF7860B9
:100BC00000BF0C37BD465DF8047B704780B582B02E
:100BD00000AF786039607868FFF7EEFF00BF083734
:100BE000BD4680BD90B484B000AFF860C7E9002373
:100BF000FA68D7E90034C2E90E34FA68D7E9063456
:100C0000C2E9103400BF1037BD4690BC7047F0B544
:100C100087B002AF78607B68D3E9103423430AD1F0
:100C20001648FFF7A5FC00224FF0FF306FF000419F
:100C300002F00EFDEFE77B68D3E90E340022184680
:100C4000214602F005FD0DF028FBC7E902017B6893
:100C5000D3E90E017B68D3E91056D7E90234CDE918
:100C600000342A46334600F063FE03460C467A6899
:100C7000C2E90E3400BF1437BD46F0BD20F30008B2
:100C800080B584B000AF786002F0BAFCF860FB6811
:100C9000002B06D10022094909480DF0AEFB0023C4
:100CA00008E0F86802F092FCB8607968F86802F031
:100CB00099FCBB6818461037BD4680BD4CF3000850
:100CC000800000200000000090B482B000AF786087
:100CD0007A684FF000034FF00004C2E900347A68EC
:100CE0004FF000034FF00004C2E902347A684FF07D
:100CF00000034FF00004C2E904347B6811229A61BA
:100D00007B6818460837BD4690BC704798B500AF61
:100D100001F0CAFD03460C461846214698BD90B521
:100D200083B000AF78600DF0B8FA03460C461A465F
:100D30002346786800F08EF803460C461846214694
:100D40000C37BD4690BD90B585B000AFF860C7E9DF
:100D50000023FA68D7E90034C2E904340DF09DFAA3
:100D600003460C46FA68C2E9023400BF1437BD4698
:100D700090BD90B484B000AFF860C7E90023FA6872
:100D8000D7E90034C2E90034FA68D7E90634C2E989
:100D9000023400BF1037BD4690BC7047F0B585B037
:100DA00000AFF860C7E900230DF077FA0A46014664
:100DB000D7E900345D1A64EB0206FB68C3E900560C
:100DC0000DF06BFA03460C46FA68C2E9023400BF24
:100DD0001437BD46F0BD90B585B000AFF860C7E9E7
:100DE0000023FA68D7E90034C2E900340DF055FA5F
:100DF00003460C46FA68C2E9023400BF1437BD4608
:100E000090BD90B482B000AF78607B68D3E90034C5
:100E1000184621460837BD4690BC7047F0B585B0EE
:100E200000AFF860C7E90023FB68D3E90012D7E9F7
:100E30000034CD1842EB0406FB68C3E900560DF000
:100E40002CFA03460C46FA68C2E9023400BF143794
:100E5000BD46F0BD2DE9B04F88B000AF7861C7E95D
:100E600002237B69D3E90001D7E90223841841EB0F
:100E700003057B6993ED047B87ED007B7B69D3E9F8
:100E80000223D7E90201B0EB020A61EB030B5046E3
:100E900059460CF07DFB02460B46D7E900010CF0E9
:100EA000A5FB02460B46104619464FF000020C4BBC
:100EB0000CF0E6F902460B46104619460CF030FFDE
:100EC00002460B4614EB020845EB0309C7E9068905
:100ED000D7E90634184621462037BD46BDE8B08F15
:100EE0000000E03F2DE9F04387B000AFF860C7E9AC
:100EF0000023FB68D3E90034D7E90012CD1A62EB76
:100F00000406284631460CF043FB80468946FB68C0
:100F1000D3E90445FB68D3E90223104619460CF0D7
:100F200037FB02460B46204629460CF05FFB034682
:100F30000C461A462346404649460CF0A1F90346A2
:100F40000C46C7E90434FB68D3E904014FF0000202
:100F5000104B0CF095F903460C461A462346D7E988
:100F600004010CF06DFC03460C46184621464FF078
:100F70000002094B0CF084F903460C461846214642
:100F80000CF0CEFE03460C46184621461C37BD46E3
:100F9000BDE8F0830000F03F0000E03FB0B58EB048
:100FA00000AFC7E902017A603B60D7E90201924ACB
:100FB00044F694630CF04CFE03460C467B63D7E981
:100FC00002018D4A44F694630CF042FE1C4613461F
:100FD000C7E90A347A6B894B13447B62786A0CF058
:100FE0009BFA75A3D3E900230CF048F903460C469D
:100FF0001846214672A3D3E900230CF021FC0346D6
:101000000C46184621460CF08BFD03463B627A6A7B
:101010003B6A1A443B6A002B00DA03339B105B42A5
:10102000134403F2F553FB61F8690CF075FA66A3FB
:10103000D3E900230CF022F903460C46184621465A
:1010400063A3D3E900230CF0FBFB03460C461846D0
:1010500021460CF065FD0346BB61BB6940F26D1291
:1010600002FB03F2BB69002B00DA03339B1013442D
:101070007B61FA697B69D31A18460CF04DFA56A3C6
:10108000D3E900230CF0DCFB03460C46184621464E
:101090000CF046FD03463B61FA697B69D41A386956
:1010A0000CF03AFA4CA3D3E900230CF09FFA024665
:1010B0000B46104619460CF033FD0346E21ABB6C92
:1010C0001A603B69591E3B694D4A82FB03021A4470
:1010D000D210DB179A1A13465B0013449B00CA1800
:1010E0003B681A60BB69A3F593530B3B3A681268DF
:1010F0000732444981FB02018910D217521A1A445F
:101100007B681A60D7E90A013F4A40F246330CF087
:101110009FFD03460C461A46FB6C1A60D7E90A018C
:101120002FA3D3E900230CF093FD03460C46184689
:1011300021464FF03C024FF000030CF089FD1C46A5
:1011400013461A463B6D1A60D7E90A0126A3D3E974
:1011500000230CF07DFD03460C46184621464FF057
:101160003C024FF000030CF073FD1C46134618467A
:1011700021460CF00DFA04460D46D7E90A011AA3E0
:10118000D3E900230CF064FD104619460CF000FA78
:1011900017A3D3E900230CF053FB02460B4620466D
:1011A00029460CF06DF803460C467A6DC2E900340E
:1011B00000BF3837BD46B0BD00000040D07D3C4187
:1011C0000000000088D5E1406666666666865E407F
:1011D0000000000000D4764061545227A0993E40A0
:1011E000005847F80D00000000CA9A3B00000000BC
:1011F0000000000065CDCD4100004F9159682500E9
:10120000932449926766666600A0B83090B583B0B3
:1012100000AF78607B68D3E90034184621460CF0B3
:10122000B7F90BA3D3E900230CF00AFB03460C46E5
:101230001846214608A3D3E900230CF021F8034601
:101240000C46184621460C37BD4690BDAFF30080D2
:101250000000C05324A5D34200000000002BE94049
:101260002DE9B04388B000AFF860B9607A603B60A8
:10127000FB6840F26F1202FB03F1BB680933384A86
:1012800082FB03025210DB17D21AFB681A44134682
:10129000DB009B1A002B00DA03339B105B42CA1859
:1012A000BB6840F2131101FB03F32E4981FB0301DC
:1012B0004910DB17CB1A1A447B681344A3F5322379
:1012C000A3F2A353FB613A6813461B019B1A9B00D0
:1012D0001A46BB6B1A4413461B019B1A9B00184607
:1012E0000CF01AF903460C461A462346D7E91001BA
:1012F0000BF0C6FF03460C46C7E90434FB694FEA0E
:10130000E374194A02FB04F144F6946202FB03F20F
:101310000A441549A3FB014553191D460EA3D3E901
:101320000023D7E904010CF061F902460B46104690
:1013300019460CF0F5FC02460B4614EB020845EB8F
:10134000030943464C46184621462037BD46BDE8B2
:10135000B08300BFAFF300800000000065CDCD4139
:10136000ABAAAA2A398EE33800004F91B0B588B0F5
:1013700000AFF860B9607A603B60BB681B78FB76B1
:10138000FB681B883B83FB7E022B05D8FB7E0C335E
:10139000FB763B8B013B3B833B8B42F2107202FBA3
:1013A00003F2BB681B781946642303FB01F3134463
:1013B0007A6812781344564A93422BDC3B8B40F2F6
:1013C0006D1202FB03F3A3F52522A2F65E423B8BCE
:1013D00003F593530C33002B00DA03339B101344B3
:1013E000A3F29B44BB681B78013318460CF094F8B9
:1013F00043A3D3E900230CF0F9F802460B4610464C
:1014000019460CF08DFB034623447A681278134486
:10141000FB6130E03B8B40F26D1202FB03F3A3F55E
:101420002523A3F65C433A8B3A49A1FB0212D20969
:1014300092B213443A8B3749A1FB0212520992B27D
:101440009B1A3A8B920892B29C18FB7E0133184685
:101450000CF062F82AA3D3E900230CF0C7F8024687
:101460000B46104619460CF05BFB034623447A6892
:1014700012781344FB613B681B7818460CF04CF85B
:1014800004460D463B6B1B7818460CF045F84FF0B0
:101490000002214B0CF0D4F902460B4620462946A7
:1014A0000BF0EEFE03460C4625461C467B6BD3E94B
:1014B000000115A3D3E900230CF0C2F902460B4644
:1014C000204629460BF0DCFE03460C461846214612
:1014D0004FF00002114B0CF0B3F903460C46C7E97C
:1014E0000434F8690CF008F8D7E904230BF0C8FEBF
:1014F00003460C46184621462037BD46B0BD00BF06
:1015000061545227A0993E40000000000020AC40EA
:10151000CC68F1001F85EB5100004E4000003840C0
:10152000B0B592B000AF78613961FA60BB604FF03E
:1015300000034FF00004C7E910344FF000034FF0F0
:101540000004C7E90E344FF000034FF00004C7E970
:101550000C344FF000034FF00004C7E906340023B9
:10156000FB620023BB6200237B627B69D3E900340A
:10157000184621460CF0D4FA0246B74B13443B629E
:101580007B69D3E900457B69D3E9002310461946FE
:101590000CF0C6FA034618460BF0BEFF02460B4697
:1015A000204629460BF06AFE03460C46C7E9103474
:1015B0003B6A07EE903AF8EE677A9FEDA87A77EEED
:1015C000C77AFDEEE77A17EE900A0BF0A5FF98A315
:1015D000D3E900230CF034F903460C46C7E90E3476
:1015E000386A0BF089FFD7E90E230BF049FE03465A
:1015F0000C4625461C464FF00002994BD7E90E01D8
:101600000CF01EF902460B46204629460BF036FE2A
:1016100003460C461846214687A3D3E900230BF066
:101620002FFE03460C46C7E90C3485A3D3E90023FB
:10163000D7E90C010BF022FE03460C461846214662
:1016400081A3D3E900230CF0FBF803460C461846AF
:1016500021460CF065FA0346FB62F86A0BF05CFF6A
:1016600079A3D3E900230BF0C1FF03460C461846CB
:1016700021460CF055FA0346BB62B86A0BF04CFFEA
:1016800003460C461A462346D7E90C010BF0F6FD3B
:1016900003460C46184621466DA3D3E900230CF0FF
:1016A000CFF803460C46184621460CF039FA03469B
:1016B0007B62B86A0BF030FF03460C461A4623469D
:1016C000D7E90C010BF0DAFD03460C4625461C4613
:1016D0007B6A07EE903AF8EEE77A9FED627A67EE62
:1016E000877AFCEEE77AC7ED017A3B79DBB21846E0
:1016F0000BF012FF02460B46204629460BF0BEFDBA
:1017000003460C46184621460CF032FA0346DAB27C
:10171000BB681A707B6ADAB27B6A534981FB0301AA
:101720001944C910DB175B1ADBB2194649000B4498
:101730009B00DBB21344DBB2013BDAB2FB681A70E8
:10174000FB6A9AB2FB681B780733484981FB0301A7
:101750008910DB175B1A9BB213449BB2A3F593531A
:101760000B3B9AB23B691A804FF00002404BD7E91D
:1017700010010BF03BFF03460C46184621460CF0C7
:10178000F7F90346DAB2BB6D1A704FF00002384B1E
:10179000D7E910010BF02AFF03460C4625461C46EC
:1017A000BB6D1B7818460BF0B7FE02460B46204671
:1017B00029460BF063FD03460C46C7E90634D7E91A
:1017C00006014FF000022B4B0BF010FF03460C46B6
:1017D000184621460CF0CCF90346DAB2FB6D1A70BC
:1017E000D7E906014FF00002224B0BF0FFFE034643
:1017F0000C4625461C46FB6D1B7818460BF08CFEEC
:1018000002460B46204629460BF038FD03460C469F
:10181000184621464FF00002164B0BF0E7FE034638
:101820000C463A6EC2E9003400BF4837BD46B0BD31
:101830000000000088D5E1400000000000D497407F
:101840006666666666465E400000000000D476402C
:1018500061545227A0993E40019F240082EEE34943
:101860000000104001CDF4419324499267666666FA
:101870000000384000004E40B0B582B000AF786044
:1018800039607B68D3E900453B68D3E900010AA3CE
:10189000D3E900230BF0D4FF02460B46204629462D
:1018A0000BF0EEFC03460C46184621460837BD46B1
:1018B000B0BD00BFAFF30080000000000018F5408D
:1018C000B0B584B000AFF860B9607A60FB68D3E966
:1018D00000457B68D3E9002311A1D1E900010BF099
:1018E000CDFC02460B4610461946BB68D3E90023DF
:1018F0000BF0C4FC02460B46104619460AA3D3E976
:1019000000230BF09DFF02460B46204629460BF0B4
:10191000B7FC03460C46184621461037BD46B0BDFD
:10192000643BDF4F8D174040000000000018F54079
:101930002DE9F04F87B000AFC7E90401C7E90223E2
:10194000D7E90423002A73F1000307DA3D48FEF7C4
:101950000FFE4FF0FF346FF000456AE0D7E9022335
:10196000002A73F1000307DA3748FEF701FE4FF053
:10197000FF346FF000455CE0D7E91023002A73F1D3
:10198000000307DA3148FEF7F3FD4FF0FF346FF044
:1019900000454EE0D7E90423D7E91001904271EBEE
:1019A000030302DAD7E9044543E0D7E902231343EE
:1019B00004D14FF0FF346FF000453AE04FF0FF30B4
:1019C0006FF00041D7E90423B0EB020A61EB030B8F
:1019D000D7E90223524573EB0B0304DB4FF0FF34CE
:1019E0006FF0004525E0D7E91001D7E90423861AF6
:1019F0003E6061EB03037B60D7E90223D7E9000176
:101A00000CF026F902460B4612F1010843F10009D9
:101A1000BB6809FB03F2FB6808FB03F3D118BB6842
:101A2000A3FB082319440B46D7E90401141843EB20
:101A3000010523462C46184621461C37BD46BDE805
:101A4000F08F00BFB8F300080CF4000860F4000841
:101A5000F0B587B000AFC7E902017A603B60D7E913
:101A600002011FA3D3E900230CF0F2F803460C4651
:101A70001A467B681A607B681B684FF000041A4A9C
:101A800002FB04F14FF0FF3202FB03F20A44164955
:101A9000A3FB013422441446D7E90212CD1842EBCD
:101AA0000406C7E90456D7E904124FF000034FF0CB
:101AB00000040C000023C7E90434D7E9040108A39B
:101AC000D3E900230CF0C4F803460C461A463B68E1
:101AD0001A6000BF1C37BD46F0BD00BFAFF30080E9
:101AE00000CA9A3B00000000003665C480B582B091
:101AF00000AF786039607B68012B07D13B684FF6F7
:101B0000FF72934202D10348FFF7DEF800BF0837A7
:101B1000BD4680BD08A2002080B500AF4FF6FF7122
:101B20000120FFF7E3FF80BD90B59FB000AF786064
:101B300039603B685A1C3A601B7887F8773097F811
:101B40007730002B14BF01230023DBB2002B00F001
:101B50006F84002387F87630002387F875300023E0
:101B600087F87430002387F87330002387F87230C9
:101B700097F87730252B0AD07B681B6808331B68E1
:101B800097F8772011467868984700F04ABC3B6880
:101B90005A1C3A601B7887F87730002387F86B303F
:101BA000202387F86A30032387F8693097F8773065
:101BB000302B09D197F8773087F86A303B685A1C88
:101BC0003A601B7887F8773097F877302F2B0ED94B
:101BD00097F87730392B0AD897F87730303B87F869
:101BE0006B303B685A1C3A601B7887F8773097F85F
:101BF00077302E2B37D13B685A1C3A601B7887F818
:101C0000773097F87730002B00F00D8497F8773015
:101C1000303B87F869303B685A1C3A601B7887F87C
:101C2000773097F87730002B00F0FF8397F8773004
:101C30002F2B18D997F87730392B14D897F86930AB
:101C40001A46920013445B00DAB297F877301344D7
:101C5000DBB2303B87F869303B685A1C3A601B782E
:101C600087F87730E2E797F877306C2B08D10123BB
:101C700087F875303B685A1C3A601B7887F87730D4
:101C800097F877306C2B08D1012387F874303B68C4
:101C90005A1C3A601B7887F8773097F87730002B1A
:101CA00000F0C58397F87730623B162B00F28F80E7
:101CB00001A252F823F000BFC71D0008CF1D000885
:101CC0009B1D00086D1D0008871D0008CF1D000822
:101CD000CF1D0008A91D0008CF1D0008CF1D00085A
:101CE000CF1D0008CF1D0008CF1D0008571D00089C
:101CF000CF1D0008CF1D0008CF1D0008151D0008CE
:101D0000CF1D0008B71D0008CF1D0008CF1D00081B
:101D1000BF1D00087B681A1D1368191D11601B6820
:101D2000FB66FB6E5A1CFA661B7887F8773097F8CB
:101D30007730002B14BF01230023DBB2002B00F00F
:101D40006F837B681B6808331B6897F87720114600
:101D500078689847E5E70823A7F870307B681B6828
:101D600008331B6830217868984746E0012387F8DC
:101D70007230012387F87330012387F876300A2305
:101D8000A7F8703039E0012387F87330012387F812
:101D900076300A23A7F870302FE0012387F87630D9
:101DA0000A23A7F8703028E0002387F876300A234A
:101DB000A7F8703021E00A23A7F870301DE0102347
:101DC000A7F8703019E00223A7F8703015E097F8F3
:101DD0007730632B07D17B681A1D1368191D1160BA
:101DE0001B6887F877307B681B6808331B6897F897
:101DF000772011467868984713E34FF000034FF0BF
:101E00000004C7E916344FF000034FF00004C7E99F
:101E100014340023FB6497F87230002B00F03C81EF
:101E20007B681A1D1368073323F0070303F10801C9
:101E30001160D3E90034C7E91434D7E91423D7E992
:101E400014010BF03BFE0346002B15D17B681B6889
:101E500008331B686E21786898477B681B680833D5
:101E60001B686121786898477B681B6808331B688A
:101E70006E2178689847D4E2012387F84B304FF001
:101E80000003AB4CC7E9103497F86B30013BFB63A0
:101E90004FF000024FF00003D7E914010BF018FED9
:101EA0000346002B02D0FF2387F84B3097F94B30C5
:101EB000B3F1FF3F05D1FB6B002B02DDFB6B013B58
:101EC000FB63FB6B5A1EFA63002BCCBF012300237C
:101ED000DBB2002B0BD04FF00002964BD7E910017C
:101EE0000BF084FB03460C46C7E91034E9E797F989
:101EF0004B3018460BF010FBD7E914230BF076FBA0
:101F000003460C461A462346D7E910010BF0FEFDA6
:101F10000346002B00D13DE097F94B3018460BF0FB
:101F2000FBFAD7E914230BF061FB03460C46194674
:101F3000224601231C4613460A46D7E910010BF03E
:101F4000E5FD0346002B01D100231C46E3B283F0DC
:101F50000103DBB2002B5ED14FF000024FF0000313
:101F6000D7E914010BF0AAFD0346002B53D1FB6CFB
:101F700013F5997F4FDB4FF000026E4BD7E9140148
:101F80000BF034FB03460C46C7E91434FB6C013BF1
:101F9000FB64C1E797F94B3018460BF0BDFAD7E95F
:101FA00014230BF023FB03460C461946224601235B
:101FB0001C4613460A46D7E910010BF093FD034671
:101FC000002B01D100231C46E3B283F00103DBB2F6
:101FD000002B12D1FB6CB3F5997F0EDC4FF00002A1
:101FE000544BD7E914010BF02BFC03460C46C7E910
:101FF0001434FB6C0133FB64CCE74FF000024D4B13
:10200000D7E914010BF0F2FA03460C46C7E9143481
:10201000FB6C013BFB64FB6C13F5997F0EDC00232A
:10202000FB644FF000034FF00004C7E916344FF093
:1020300000034FF00004C7E9143496E0FB6CB3F5DD
:10204000997F20DB97F94B30002B06DA7B681B6801
:1020500008331B682D21786898477B681B68083314
:102060001B686921786898477B681B6808331B6880
:102070006E21786898477B681B6808331B68662167
:1020800078689847CDE1D7E914010BF049FE034683
:102090000C46C7E9163468E097F87330002B34D04B
:1020A0007B681A1D1368073323F0070303F1080147
:1020B0001160D3E90034C7E91434D7E91423D7E910
:1020C00014010BF0FBFC0346002B15D17B681B6849
:1020D00008331B686E21786898477B681B68083353
:1020E0001B686121786898477B681B6808331B6808
:1020F0006E217868984794E1D7E914010BF010FE3F
:1021000003460C46C7E916342FE097F87430002BCD
:1021100012D07B681A1D1368073323F0070303F1FD
:1021200008011160D3E90034C7E916341DE000BF8F
:102130000000F03F0000244097F87530002B0AD0D3
:102140007B681A1D1368191D11601B684FEAE37440
:10215000C7E9163409E07B681A1D1368191D116060
:102160001B684FEAE374C7E9163497F87630002B02
:102170002DD0D7E91634002B74F100030ADB4FF0A1
:1021800000024FF00003D7E914010BF0A1FC034655
:10219000002B1CD0D7E916345B4264EB4404C7E93A
:1021A00016343B6D3B657B6D83F000437B657B683C
:1021B0001B6808331B682D217868984797F86B30A7
:1021C000002B04D097F86B30013B87F86B3097F801
:1021D0007430002B04D0D7E91634C7E918340EE068
:1021E00097F87530002B05D0BB6D4FF00004C7E9A0
:1021F000183404E0BB6D4FF00004C7E918341A230B
:102200007B6307F114031933FB66FB6E00221A701F
:10221000B7F870304FF00004D7E918011A4623468A
:102220000BF066FD1C461346DBB2303387F83B30BB
:1022300097F83B30392B04D997F83B30073387F8B0
:102240003B30FB6E013BFB66FB6E97F83B201A7040
:10225000B7F870304FF000041A462346D7E918014A
:102260000BF046FD03460C46C7E9183497F86B306F
:10227000002B04D097F86B30013B87F86B30D7E91F
:102280001834234300D0C3E797F86B305A1E87F801
:102290006B20002B14BF01230023DBB2002B07D0DF
:1022A000FB6E013BFB66FB6E97F86A201A70EBE74A
:1022B000FB6E5A1CFA661B7887F8773097F87730F0
:1022C000002B14BF01230023DBB2002B09D07B6855
:1022D0001B6808331B6897F8772011467868984781
:1022E000E6E797F87330002B41D07B681B68083312
:1022F0001B682E217868984797F869305A1E87F82E
:102300006920002B14BF01230023DBB2002B2ED049
:10231000D7E916010BF03CF903460C461A46234652
:10232000D7E914010AF0AAFF03460C46C7E91434A2
:102330004FF00002404BD7E914010BF057F9034668
:102340000C46C7E91434D7E914010BF0E9FC034645
:102350000C46C7E916347B681B6808331B6897F87E
:1023600058203032D2B2114678689847C4E797F8BF
:102370007230002B3FF4DDAB7B681B6808331B68B1
:10238000652178689847FB6C002B09DA7B681B682D
:1023900008331B682D2178689847FB6C5B42FB640F
:1023A00006233B6307F10C030533FB66FB6E00223B
:1023B0001A70B7F87020FB6C93FBF2F102FB01F28C
:1023C0009B1ADBB2303387F82F30FB6E013BFB6684
:1023D000FB6E97F82F201A70B7F87030FA6C92FBEA
:1023E000F3F3FB64FB6C002B00D0E2E7FB6E5A1C9E
:1023F000FA661B7887F8773097F87730002B14BF90
:1024000001230023DBB2002B3FF493AB7B681B68F6
:1024100008331B6897F87720114678689847E5E7F6
:1024200000BFFFF786BB00BF02E000BF00E000BFB7
:102430007C37BD4690BD00BF000024400FB480B57E
:1024400082B000AF0D4B1B68002B10D03B461846E6
:102450000BF05AFF07F114037B603B4639691846BD
:10246000FFF762FB3B4618460BF020FF00E000BF81
:102470000837BD46BDE8804004B0704740000020EA
:102480000EB480B587B000AF786007F10C037968AF
:1024900018460BF0E7FF07F128033B6107F10C0337
:1024A000796A1846FFF740FB07F10C0318460CF059
:1024B00009F800BF1C37BD46BDE8804003B0704737
:1024C00080B400AF034B1B781846BD465DF8047B13
:1024D000704700BFACAA002080B400AF41F6533370
:1024E0001846BD465DF8047B704780B400AF034BCF
:1024F0001846BD465DF8047B704700BF70110100AF
:1025000080B400AF4CF250331846BD465DF8047BF2
:10251000704780B400AF034B1846BD465DF8047B9E
:10252000704700BFB0F5000880B400AF024B1846FA
:10253000BD465DF8047B7047C4F50008000000004C
:1025400080B483B000AF0346FB7197F9073003F006
:102550001F02074997F907305B09012000FA02F2D0
:1025600041F8232000BF0C37BD465DF8047B70475F
:1025700000E100E080B483B000AF0346FB7197F93F
:102580000730DBB203F01F02074997F907305B09F8
:10259000012000FA02F2603341F8232000BF0C371B
:1025A000BD465DF8047B704700E100E080B483B075
:1025B00000AF03463960FB7197F90730002B0DDA45
:1025C0003B68DAB20E4997F90730DBB203F00F032C
:1025D000043B1201D2B20B441A760BE03B68DBB22B
:1025E000084A97F9071008461B01D9B213180A4682
:1025F00083F8002300BF0C37BD465DF8047B7047AD
:1026000000ED00E000E100E090B583B000AF164BB4
:102610001B7883F00103DBB2002B1ED10BF03DFED3
:10262000C7E90001D7E9000104F0C8FA0BF035FE54
:102630000A4601460D4BD3E90034994272EB04037C
:10264000B4BF01230023DBB2002B08D1084B5B6829
:10265000074A43F08053536002E000BF00E000BF30
:102660000C37BD4690BD00BF2400002060A20020B2
:1026700000ED00E080B582B000AF78607B68B3F118
:10268000807F01D301230EE07B6823F07F43084A5B
:10269000013B53600F214FF0FF30FFF787FF044BE2
:1026A00000229A60002318460837BD4680BD00BF4F
:1026B00010E000E080B400AF044B03221A60002356
:1026C0001846BD465DF8047B704700BF10E000E08F
:1026D00080B400AF044B00221A6000231846BD46A8
:1026E0005DF8047B704700BF10E000E0B0B500AFBC
:1026F0000E4B1B68DB0819464FF000020C4BD3E968
:10270000003403FB02F501FB04F00544A1FB0301C7
:102710006B181946074A4FF000030BF099FA03466D
:102720000C461846FFF7A6FF00BFB0BD1000002002
:102730000800002040420F00B0B500AF0F4B1B68EF
:10274000DB0819464FF000020D4BD3E9003403FBC0
:1027500002F501FB04F00544A1FB03016B181946C7
:10276000084A4FF000030BF073FA03460C46184674
:10277000FFF780FFFFF79EFF00BFB0BD10000020F5
:102780000800002040420F0080B500AFFFF7A0FF17
:1027900000BF80BD90B482B000AFC7E90001054A18
:1027A000D7E90034C2E9003400BF0837BD4690BC09
:1027B000704700BF08000020F8B500AF01210A48AB
:1027C00003F080FB1A20FFF7D5FE084BD3E9003455
:1027D00007494FF000025D1844EB0206034BC3E9C2
:1027E000005600BFF8BD00BF0048014028A20020ED
:1027F0008096980080B588B000AF0023FB77012158
:102800004FF4802001F0A2FE00214FF4802001F05F
:102810003DFF3B46184601F067FC214802F092F864
:102820007A68FB68B2FBF3F3012B02D90223FB7732
:1028300001E00123FB774EF660237B61FB68FA7FA2
:1028400002FB03F3174AA2FB0323DB0C9BB2013B01
:102850009BB23B8200237B8200233B830023BB7619
:1028600007F1100319460E4802F04CF9012201212C
:102870000B4803F09DFA01214FF4802001F0AEF9DE
:102880000121074802F0C1FAFF211A20FFF78EFE4E
:102890001A20FFF755FE00BF2037BD4680BD00BFA0
:1028A00000480140819F5E16F0B587B000AF00235D
:1028B0007B614FF000034FF00004C7E90234284B5E
:1028C000D3E90034C7E90234264802F0EDF9786113
:1028D000234BD3E90034D7E90212A24208BF994240
:1028E00000D0ECE74FF000034FF00004C7E90034DC
:1028F00019A4D4E90034C7E900347B694FF000041F
:102900007A6803FB02F13A6804FB02F20A44396870
:10291000A1FB033422441446C7E90034C7E900345C
:10292000D7E90001104A4FF000030BF091F903467C
:102930000C46C7E90034D7E90212D7E90034CD18B4
:1029400042EB04062B463446184621461C37BD464A
:10295000F0BD00BFAFF30080AA21EF090000000026
:1029600028A200200048014040420F0090B400AF70
:10297000054A4FF000034FF00004C2E9003400BFE5
:10298000BD4690BC704700BF28A2002098B500AF9C
:10299000FFF78AFF03460C461846214698BD00BF44
:1029A00080B483B000AF78604FF0FF3318460C3727
:1029B000BD465DF8047B704780B485B000AFF86019
:1029C000B9607A60054B0C221A604FF0FF3318464D
:1029D0001437BD465DF8047B704700BF08CD00206A
:1029E00080B400AF044B0B221A604FF0FF3318463F
:1029F000BD465DF8047B704708CD002080B483B0ED
:102A000000AF786039603B684FF400525A60002391
:102A100018460C37BD465DF8047B704780B400AFA4
:102A200001231846BD465DF8047B704780B483B02F
:102A300000AF7860012318460C37BD465DF8047B73
:102A4000704780B483B000AF78603960054B1622C0
:102A50001A604FF0FF3318460C37BD465DF8047B13
:102A6000704700BF08CD002080B483B000AF78600D
:102A70003960054B1F221A604FF0FF3318460C37A0
:102A8000BD465DF8047B704708CD002080B485B05A
:102A900000AFF860B9607A60002318461437BD466D
:102AA0005DF8047B704780B485B000AFF860B96012
:102AB0007A604FF0FF3318461437BD465DF8047B4B
:102AC000704780B485B000AFF860B9607A600023C9
:102AD00018461437BD465DF8047B704780B485B056
:102AE00000AF7860144B1B68002B02D1124B134AC5
:102AF0001A60114B1B68FB600F4B1A687B681A4405
:102B00000F4B1B785B420F490B449A4206D900BE1B
:102B10000D4B0C221A604FF0FF3306E0064B1A688B
:102B20007B681344044A1360FB6818461437BD469B
:102B30005DF8047B704700BF34A200200CCD00205C
:102B4000000400000000022008CD002080B483B003
:102B500000AF78604FF0FF3318460C37BD465DF884
:102B6000047B704780B483B000AF7860054B0222CD
:102B70001A604FF0FF3318460C37BD465DF8047BF2
:102B8000704700BF08CD002080B483B000AF7860EC
:102B9000054B0A221A604FF0FF3318460C37BD462A
:102BA0005DF8047B704700BF08CD002080B586B07B
:102BB00000AFF860B9607A6000237B617A697B6856
:102BC0009A420BD2BB681B78184600F02AF8BB6803
:102BD0000133BB607B6901337B61EFE77B6818469B
:102BE0001837BD4680BD80B584B000AFF860B960CD
:102BF0007A603B603A687968B868FFF7D7FF0346A8
:102C000018461037BD4680BD80B582B000AF7860F1
:102C100039603868FFF762FF034618460837BD463B
:102C200080BD80B584B000AF78607B68FB73FB7BB0
:102C30000A2B02D10D20FFF7F4FF00F063F80346E2
:102C400013F1100F0CBF01230023DBB2002B24D0A3
:102C5000FB7B1946164804F0B9FF0346B3F1FF3F6A
:102C60000CBF01230023DBB2002B1BD0FDF718FBA8
:102C70000346002B07D04FF0FF326FF000430C48A3
:102C800003F002FDE4E70A4805F01FF8034683F06D
:102C90000103DBB2002BDBD0F5E7FB7B19460448D0
:102CA00005F0E8FCFB7B18461037BD4680BD00BF31
:102CB00064C4002080B584B000AF78607B68FB609E
:102CC000FB681B78002B07D0FB685A1CFA601B7846
:102CD0001846FFF7A6FFF3E7002318461037BD4656
:102CE00080BD80B400AFFEE780B400AF00BFBD463A
:102CF0005DF8047B704780B400AF00BFBD465DF84F
:102D0000047B704780B400AF044B5B68C3F30803D7
:102D1000103B1846BD465DF8047B704700ED00E0AF
:102D200080B500AFFFF7EEFF034619460148FFF7F5
:102D300085FBFEE71CF6000880B500AF194B5B6809
:102D4000184A23F080435360174BD3F88830164A53
:102D500043F47003C2F88830144B1B68134A43F0E5
:102D600001031360114B00229A60104B1B680F4A3D
:102D700023F0847323F4803313600C4B0C4A5A60A5
:102D80000A4B1B68094A23F480231360074B002277
:102D9000DA6000F08DF8044B4FF000629A6000BFDB
:102DA00080BD00BF30EF00E000ED00E000380240E1
:102DB0001030002480B487B000AF00233B610023B3
:102DC0007B610223FB600023BB6002237B60334BEB
:102DD0009B6803F00C033B613B69042B09D03B6902
:102DE000082B0AD03B69002B3DD12D4B2D4A1A6090
:102DF0003DE02B4B2C4A1A6039E0284B5B689B0D59
:102E000003F00103BB60254B5B6803F03F037B606D
:102E1000BB68002B0CD0244A7B68B2FBF3F31F4A3B
:102E200052689209C2F3080202FB03F37B610BE0D4
:102E30001C4A7B68B2FBF3F3184A52689209C2F34A
:102E4000080202FB03F37B61144B5B681B0C03F06D
:102E5000030301335B00FB607A69FB68B2FBF3F3A9
:102E60000F4A136003E00E4B0E4A1A6000BF0B4B73
:102E70009B681B0903F00F030C4AD35CDBB23B6178
:102E8000074B1A683B6922FA03F3054A136000BF37
:102E90001C37BD465DF8047B704700BF0038024018
:102EA000100000200024F40000127A00140000201A
:102EB00080B483B000AF00237B6000233B60694B8C
:102EC0001B68684A43F480331360664B1B6803F445
:102ED00000333B607B6801337B603B68002B03D190
:102EE0007B68B3F5A04FF0D15E4B1B6803F4003351
:102EF000002B02D001233B6001E000233B603B68D4
:102F0000012B43D1574B1B6C564A43F0805313643B
:102F1000554B1B68544A43F440431360514B514A8C
:102F20009B6893604F4B9B684E4A43F40043936009
:102F30004C4B9B684B4A43F4A0539360494B4B4A1C
:102F40005A60484B1B68474A43F08073136000BFC8
:102F5000444B1B6803F00073002BF9D0444B40F244
:102F600005721A603F4B9B683E4A23F0030393604F
:102F70003C4B9B683B4A43F00203936000BF394BD4
:102F80009B6803F00C03082BF9D165E0354B1B6CF3
:102F9000344A43F080531364334B1B68324A43F482
:102FA000004313602F4B1B6C2E4A43F08053136475
:102FB00000BF2C4B1B6803F00203002BF9D02A4BF7
:102FC0001B68294A43F080031360264B1B68254A7F
:102FD00023F08073136000BF224B1B6803F0007363
:102FE000002BF9D11F4B234A5A601E4B1B681D4A08
:102FF00043F08073136000BF1A4B1B6803F000732B
:10300000002BF9D01A4B40F202721A60184B1B6861
:1030100003F00F03022B00D0FEE7124B9B68114A0E
:1030200043F00203936000BF0E4B9B6803F008035C
:10303000082BF9D10B4B9B680A4A23F0F0039360ED
:10304000084B9B68074A43F480539360054B9B6889
:10305000044A23F46043936000BF0C37BD465DF81B
:10306000047B70470038024000700040085440273D
:10307000003C02401054002780B483B000AF786059
:103080007B6800221A607B6800225A607B680022FD
:103090009A607B680022DA607B6818460C37BD4670
:1030A0005DF8047B704780B586B000AF786000F0B3
:1030B000A7FA7861786900F089FA386107F10C03A2
:1030C00040F2EB3118460BF01FFA7B681B68002BAF
:1030D00006D07B681B687A699A4201D0012300E020
:1030E0000023002B2CD07B681B68184600F06EFA7A
:1030F00002463B699342CCBF01230023DBB2002B85
:1031000005D07B681B683969184600F06BFA7B684C
:103110001B68002B06D07B681B687A699A4201D035
:10312000012300E00023002B07D07A684FF0FF3026
:103130006FF0004100F08CFAE9E77B6800225A60EA
:103140007B687A691A607B683A699A607B685B6819
:103150005A1C7B685A6007F10C0318460BF0E4F91F
:1031600000F0E0F900BF1837BD4680BD80B586B0DD
:1031700000AF786000F044FA786100233B617B681F
:103180001B687A699A4214BF01230023DBB2002B2B
:1031900040D17B685B685A1E7B685A607B685B68BD
:1031A000002BCCBF01230023DBB2002B34D107F16D
:1031B0000C0340F2EB3118460BF0A6F97B680022B5
:1031C0001A60786800F03CFC38613B69002B05D040
:1031D0007B683A691A60386900F01EFA07F10C033F
:1031E00018460BF0A1F97B689B681846FDF748FD6F
:1031F0007B6800229A603B69002B05D07B689B6846
:10320000002B01D1012300E00023002B05D000F0AA
:1032100089F902E000BF00E000BF1837BD4680BD5D
:1032200080B400AF044B00221A7001231846BD463B
:103230005DF8047B704700BF2400002080B400AF1D
:10324000044B01221A7001231846BD465DF8047B29
:10325000704700BF2400002080B582B000AF7860C6
:10326000044B1B687A681A6200F026F800BF083722
:10327000BD4680BD6800002098B500AF0B4B1A68B2
:103280004FF000034FF00004C2E90A34074B1B68FB
:10329000074A1360074B01221A70044B1B6818463B
:1032A00000F078F905F0EAFD00BF98BD2800002085
:1032B0006800002000A2002090B585B000AF1C4B34
:1032C000D3E90034591C44F10002194BC3E9001240
:1032D000184BD3E90034C7E90234D7E90234234359
:1032E00003D10AF0DAFFC7E90201124A4FF00003E6
:1032F0004FF00004C2E900340F4B1B687B607B6811
:10330000002B04D1D7E9020100F0C8FA78600A4B1B
:1033100000221A60064BD3E900347A68C2E91234FD
:10332000786800F037F900BF1437BD4690BD00BF84
:1033300048A2002058A2002050A2002090B400AF64
:10334000034BD3E9003418462146BD4690BC704774
:1033500048A2002080B483B000AF786039607B68F9
:10336000012B09D13B684FF6FF72934204D1054B04
:1033700023F00703044A136000BF0C37BD465DF815
:10338000047B70473CA2002040A2002080B500AF23
:103390004FF6FF710120FFF7DDFF80BD0000000048
:1033A00090B585B000AFF860B9607A603B60F868AE
:1033B0000023BA682449FCF709FF244AFB681A6015
:1033C000FB6800225A62FA684FF000034FF00004D5
:1033D000C2E90A34FB6800221A63FA684FF0FF332F
:1033E0006FF00044C2E90E34FA684FF000034FF06A
:1033F0000004C2E91034FA684FF000034FF00004F3
:10340000C2E91234FB683A685A61FB685B69184686
:10341000FCF752FF0246FB68DA61FB68DB691A467B
:10342000FB685B691344043B23F007031A46FB68FF
:103430009A61FB687A685A62F86800F009F8FB68DC
:1034400018461437BD4690BD6C00002074F8000883
:1034500080B584B000AF78607B689B69FB607B6857
:10346000DB691A46FB689A4206DCFB68094A1A6067
:10347000FB68043BFB60F2E77B689B697968184650
:1034800005F0CAFC02467B681A6200BF1037BD46D1
:1034900080BD00BFEFBEADDE90B583B000AF7860F9
:1034A0000F4A7B681A600F4B1B78002B01D0002459
:1034B0000CE07B6818460BF051F8034619460A48A1
:1034C000FCF7D6FF0948FDF753F801247B6818463E
:1034D000FCF7BAFE012C7B6818460C37BD4690BD40
:1034E00074F8000890AA002090F7000894F70008EC
:1034F00080B582B000AF78607868FFF7CDFF5021CB
:103500007868FDF763FB7B6818460837BD4680BDC9
:1035100080B483B000AF786000BF0C37BD465DF863
:10352000047B704790B585B000AF174B1B7883F0D4
:103530000103DBB2002B20D10AF0AFFEC7E9020184
:10354000D7E9020100F0AAF9786000F059F80246C4
:103550007B6893420CBF01230023DBB2002B0ED10A
:103560000A4A7B6813600A4AD7E90234C2E9003488
:10357000FFF70AF905F0A6FC02E000BF00E000BF7B
:103580001437BD4690BD00BF2400002050A200208B
:1035900058A2002080B582B000AF7860094A7B68ED
:1035A000136009484FF00001FFF7F4F8FFF7C4F883
:1035B0007B681B6A184605F076FC00BF0837BD46DD
:1035C00080BD00BF68000020A086010080B483B0E9
:1035D00000AF78607B685B6A18460C37BD465DF8C3
:1035E000047B704780B483B000AF786039607B683B
:1035F0003A685A6200BF0C37BD465DF8047B7047DD
:1036000080B400AF034B1B681846BD465DF8047BD1
:10361000704700BF6800002090B482B000AF7860AF
:103620000A4A4FF000034FF00004C2E900347B68FF
:1036300000221A637A684FF000034FF00004C2E9D9
:103640000A3400BF0837BD4690BC704760A2002016
:1036500090B587B000AFC7E902017A60FFF7D0FFED
:10366000786107F1100340F2EB3118460AF04CFF85
:103670007B697A681A637A69D7E90234C2E90A3445
:1036800007F1100318460AF04FFFFFF74BFF7B6965
:1036900000221A637B69D3E90A342343002B0CBF51
:1036A00001230023DBB2002B01D0012300E0002323
:1036B00018461C37BD4690BDB0B582B000AF20485B
:1036C000FEF7BCFE1F4B1B687B607B68002B20D085
:1036D0007B685C6A7B685D697B6818460AF03EFF20
:1036E00003462A4621461848FEF7A8FE7B681B6859
:1036F0000C331B68786898477A684FF000034FF0E6
:103700000004C2E90A347B6818460AF01BFF78609F
:10371000DBE70E48FEF792FE0A4B1B683B603B68F6
:10372000002B08D03868FFF7F3FE3B6818460AF014
:1037300009FF3860F3E700BF0837BD46B0BD00BFE2
:10374000A4F700086C000020B8F70008DCF70008B8
:1037500080B400AF00BFBD465DF8047B704790B5F4
:1037600083B000AF78600D4A7B6813607A684FF0D1
:1037700000034FF00004C2E90A347B681B68083379
:103780001B68786898477A684FF0FF336FF0004401
:10379000C2E90A34FFF7C6FEF5E700BF6800002063
:1037A00098B500AFFFF7CAFD03460C461846214600
:1037B00098BD2DE9B04F86B000AFF8602C4BD3E92F
:1037C000003413F1010844F10009294BC3E90089D1
:1037D000FB6800211846FFF705FFFFF785FAFFF7A2
:1037E000A1FE244BD3E900450AF057FD02460B46E3
:1037F000B4EB020A65EB030BC7E904ABD7E9043469
:103800001D494FF0FF325818386044EB02037B60CB
:10381000D7E90034C7E90434D7E9043412A2D2E965
:103820000012994272EB0403C8DAFEF7ADFFD7E944
:1038300004014FF47A724FF000030AF009FA0346CC
:103840000C4618462146FEF7A5FFFEF775FF05F06A
:10385000E7F90A484FF00001FEF79CFFFEF76CFF06
:10386000ACE700BFAFF3008000460A99E800000013
:10387000A0AA002060A200204039D2FFA08601004B
:1038800080B582B000AF78600348FEF7D7FD00BF77
:103890000837BD4680BD00BFECF70008F0B587B023
:1038A00000AFC7E90001604B7B61D7E900345CA23F
:1038B000D2E900125D1844EB02065C4BC3E90056E6
:1038C0005B4B1B683B613B69002B63D03B69D3E9D1
:1038D0000A12D7E90034994272EB0403B4BF012302
:1038E0000023DBB2002B31D03869FFF76FFE0446AE
:1038F0007869FFF76BFE03469C42CCBF012300238F
:10390000DBB2002B01D03B697B613869FFF75EFEBB
:1039100004467869FFF75AFE03469C420CBF012318
:103920000023DBB2002B2FD03B69D3E912127B6955
:10393000D3E91234A24208BF994234BF01230023C5
:10394000DBB2002B20D03B697B611DE03869FFF7BB
:103950003DFE04467869FFF739FE03469C42ACBF42
:1039600001230023DBB2002B0ED0304BD3E9000142
:103970003B69D3E90A341A4623460AF011FE03468E
:103980000C462A4AC2E900343B6918460AF0DAFDBF
:10399000386198E74FF49673FB607B69DB6903F548
:1039A0009673BB60786905F072FA0246BB68934271
:1039B0008CBF01230023DBB2002B16D07B699C68EF
:1039C000786905F064FA02467B69DB69D31A1A4606
:1039D00021461848FEF732FD7A694FF0FF336FF049
:1039E0000044C2E90A34104B7B617B69DB691B68C8
:1039F000114A93420ED07B699B6819460F48FEF727
:103A00001DFD7A694FF0FF336FF00044C2E90A34BC
:103A1000054B7B617B6918461C37BD46F0BD00BF76
:103A200000E1F5050000000068A2002060A200206F
:103A30006C00002000F80008EFBEADDE2CF8000896
:103A400090B585B000AF7860274BFB60274B1B68B3
:103A5000BB60BB68002B3CD0BB681B6B7A689A428A
:103A600031D1B868FFF7B2FD0446F868FFF7AEFD44
:103A700003469C42CCBF01230023DBB2002B02D0C3
:103A8000BB68FB601FE0B868FFF7A0FD0446F8685C
:103A9000FFF79CFD03469C420CBF01230023DBB2D1
:103AA000002B10D0BB68D3E91212FB68D3E91234A3
:103AB000A24208BF994234BF01230023DBB2002B8E
:103AC00001D0BB68FB60BB6818460AF03BFDB860DC
:103AD000BFE7FB68044A934201D1002300E0FB6882
:103AE00018461437BD4690BD68A200206C00002027
:103AF00080B584B000AFFFF783FD78607B689B6979
:103B0000FB607B68DB691A46FB689A4203DCFB6852
:103B1000043BFB60F5E7FB680433FB600023BB60FC
:103B20007B689B69FA689A420BD8FB681B68094A54
:103B3000934206D1BB680433BB60FB680433FB606F
:103B4000EEE77B685A69BB68D31A18461037BD4642
:103B500080BD00BFEFBEADDE80B582B000AF786043
:103B600039607B68012B0CD13B684FF6FF729342A2
:103B700007D106480AF0FEFC054A064903480BF047
:103B800017FA00BF0837BD4680BD00BF68A20020FD
:103B900088AA0020D5E5000880B500AF4FF6FF7178
:103BA0000120FFF7D9FF80BD80B400AF034B1B6835
:103BB0001B0C1846BD465DF8047B7047002004E0EE
:103BC00080B400AF044B1B68C3F30B031846BD461B
:103BD0005DF8047B704700BF002004E080B483B030
:103BE00000AF78600B46FB70FB78002B06D00A4BC9
:103BF0005A6809497B6813434B6006E0064B5A68D4
:103C00007B68DB43044913404B6000BF0C37BD4663
:103C10005DF8047B704700BF002004E080B483B0EF
:103C200000AF78600B46FB70FB78002B06D00A4B88
:103C30009A6809497B6813438B6006E0064B9A68D3
:103C40007B68DB43044913408B6000BF0C37BD46E3
:103C50005DF8047B704700BF002004E080B483B0AF
:103C600000AF78600B46FB70FB78002B06D00A4B48
:103C7000DA6809497B681343CB6006E0064BDA68D3
:103C80007B68DB4304491340CB6000BF0C37BD4663
:103C90005DF8047B704700BF002004E080B400AFF3
:103CA000164B1B68154A43F001031360134B0022A7
:103CB0009A60124B1B68114A23F0A85323F4102377
:103CC00013600E4B0E4A5A600C4B0E4AC3F8842008
:103CD0000A4B0D4AC3F88820084B1B68074A23F497
:103CE00080231360054B0022DA60044B0022C3F8E6
:103CF0008C2000BFBD465DF8047B70470038024051
:103D000010300024003000200030002480B483B044
:103D100000AF0346FB71064B00221A70044AFB7980
:103D2000137000BF0C37BD465DF8047B704700BFC1
:103D30000238024080B582B000AF00233B60002310
:103D4000FB710023BB71312000F086FD0346BB717F
:103D50003B6801333B603B68B3F5A04F02D0BB79B1
:103D6000002BF0D0312000F077FD0346002B02D06D
:103D70000123FB7101E00023FB71FB791846083732
:103D8000BD4680BD80B485B000AF0346FB71002303
:103D9000FB600A4B1B68FB60FB6823F0F803FB60C9
:103DA000FB79DB00FA681343FB60044AFB6813608D
:103DB00000BF1437BD465DF8047B704700380240F1
:103DC00080B483B000AF0346FB71044AFB791360F3
:103DD00000BF0C37BD465DF8047B704700004742CA
:103DE00080B483B000AF0346FB710D4B00221A7004
:103DF0000B4B00221A70FB79012B02D0042B04D04C
:103E000007E0074B01221A7003E0054B05221A70E8
:103E100000BF00BF0C37BD465DF8047B704700BF94
:103E20007038024080B483B000AF0346FB71044A8F
:103E3000FB79136000BF0C37BD465DF8047B70470B
:103E4000800E474280B485B000AFF860B9607A60F8
:103E50003B607B689A01BB681A433B685B08013B87
:103E60001B041A43FB681A43BB691B06044913432E
:103E70004B6000BF1437BD465DF8047B704700BF40
:103E80000038024080B483B000AF0346FB71044A9F
:103E9000FB79136000BF0C37BD465DF8047B7047AB
:103EA0006000474280B483B000AF786039607B68BF
:103EB0009A013B681B0705491343C1F8843000BFD2
:103EC0000C37BD465DF8047B704700BF00380240E8
:103ED00080B483B000AF0346FB71044AFB791360E2
:103EE00000BF0C37BD465DF8047B70476800474251
:103EF00080B485B000AFF860B9607A60FB689A0161
:103F0000BB681B061A437B681B0705491343C1F8AE
:103F1000883000BF1437BD465DF8047B704700BF92
:103F20000038024080B483B000AF0346FB71044AFE
:103F3000FB79136000BF0C37BD465DF8047B70470A
:103F40007000474280B483B000AF0346FB71044A5F
:103F5000FB79136000BF0C37BD465DF8047B7047EA
:103F60004C00474280B485B000AF786039600023D0
:103F7000FB600B4B9B68FB60FB6823F0EC63FB6012
:103F80007A683B681343FA681343FB60044AFB6892
:103F9000936000BF1437BD465DF8047B704700BFD7
:103FA0000038024080B485B000AF786039600023EB
:103FB000FB600B4B9B68FB60FB6823F07843FB6066
:103FC0007A683B681343FA681343FB60044AFB6852
:103FD000936000BF1437BD465DF8047B704700BF97
:103FE0000038024080B485B000AF78600023FB60E9
:103FF000094B9B68FB60FB6823F00303FB60FA68D6
:104000007B681343FB60044AFB68936000BF14376E
:10401000BD465DF8047B70470038024080B400AFB5
:10402000054B9B68DBB203F00C03DBB21846BD46C0
:104030005DF8047B704700BF0038024080B485B053
:1040400000AF78600023FB60094B9B68FB60FB6856
:1040500023F0F003FB60FA687B681343FB60044ABB
:10406000FB68936000BF1437BD465DF8047B704762
:104070000038024080B485B000AF78600023FB6058
:10408000094B9B68FB60FB6823F4E053FB60FA6814
:104090007B681343FB60044AFB68936000BF1437DE
:1040A000BD465DF8047B70470038024080B485B09F
:1040B00000AF78600023FB600A4B9B68FB60FB68E5
:1040C00023F46043FB607B68DB00FA681343FB600A
:1040D000044AFB68936000BF1437BD465DF8047B5B
:1040E000704700BF0038024080B489B000AF7860EC
:1040F0000023BB6100237B610023FB6102233B6142
:104100000023FB600223BB60484B9B6803F00C0359
:10411000BB61BB69042B09D0BB69082B0AD0BB6902
:10412000002B3DD17B68424A1A603DE07B68414AE2
:104130001A6039E03D4B5B689B0D03F00103FB60A7
:104140003A4B5B6803F03F03BB60FB68002B0CD06D
:10415000384ABB68B2FBF3F3344A52689209C2F39F
:10416000080202FB03F3FB610BE0314ABB68B2FBC0
:10417000F3F32E4A52689209C2F3080202FB03F3DA
:10418000FB612A4B5B681B0C03F0030301335B00EC
:104190003B61FA693B69B2FBF3F27B681A6003E0AA
:1041A0007B68234A1A6000BF204B9B6803F0F00332
:1041B000BB61BB691B09BB611F4ABB6913441B7808
:1041C000DBB27B617B681A687B69DA407B685A6086
:1041D000164B9B6803F4E053BB61BB699B0ABB6150
:1041E000154ABB6913441B78DBB27B617B685A6854
:1041F0007B69DA407B689A600C4B9B6803F46043F0
:10420000BB61BB695B0BBB610B4ABB6913441B7889
:10421000DBB27B617B685A687B69DA407B68DA6075
:1042200000BF2437BD465DF8047B7047003802406C
:104230000024F40000127A002C00002080B485B025
:1042400000AF78600023FB607B6803F44073B3F534
:10425000407F11D10F4B9B68FB60FB6823F4F81380
:10426000FB607B6823F0704323F44073FA681343C8
:10427000FB60084AFB689360064B1A6F7B68C3F3C8
:104280000B03044913430B6700BF1437BD465DF8A9
:10429000047B70470038024080B483B000AF03460F
:1042A000FB71044AFB79136000BF0C37BD465DF813
:1042B000047B70473C0E474280B483B000AF034696
:1042C000FB71044AFB79136000BF0C37BD465DF8F3
:1042D000047B7047400E474280B483B000AF7860E3
:1042E000044A7B68136000BF0C37BD465DF8047B51
:1042F000704700BF5C01474280B485B000AF786072
:104300000023FB600B4BD3F88C30FB60FB6823F081
:104310001F03FB607B68013BFA681343FB60054A9F
:10432000FB68C2F88C3000BF1437BD465DF8047BD3
:10433000704700BF0038024080B485B000AF78609D
:104340000023FB600B4BD3F88C30FB60FB6823F43D
:10435000F853FB607B68013B1B02FA681343FB6068
:10436000044AFB68C2F88C3000BF1437BD465DF8C4
:10437000047B70470038024080B485B000AF78609D
:104380000023FB600A4BD3F88C30FB60FB6823F4FE
:104390004013FB60FA687B681343FB60044AFB68C8
:1043A000C2F88C3000BF1437BD465DF8047B7047FF
:1043B0000038024080B485B000AF78600023FB6015
:1043C0000A4BD3F88C30FB60FB6823F44003FB609E
:1043D000FA687B681343FB60044AFB68C2F88C30C0
:1043E00000BF1437BD465DF8047B704700380240BB
:1043F00080B485B000AF78600023FB600A4BD3F82F
:104400008C30FB60FB6823F44033FB60FA687B6808
:104410001343FB60044AFB68C2F88C3000BF1437BA
:10442000BD465DF8047B70470038024080B483B01D
:1044300000AF7860044A7B68136000BF0C37BD464C
:104440005DF8047B704700BFE011474280B483B041
:1044500000AF78600B46FB70FB78002B06D00A4B50
:104460001A6B09497B6813430B6306E0064B1A6B12
:104470007B68DB43044913400B6300BF0C37BD4628
:104480005DF8047B704700BF0038024080B483B001
:1044900000AF78600B46FB70FB78002B06D00A4B10
:1044A0005A6B09497B6813434B6306E0064B5A6B12
:1044B0007B68DB43044913404B6300BF0C37BD46A8
:1044C0005DF8047B704700BF0038024080B483B0C1
:1044D00000AF78600B46FB70FB78002B06D00A4BD0
:1044E0009A6B09497B6813438B6306E0064B9A6B12
:1044F0007B68DB43044913408B6300BF0C37BD4628
:104500005DF8047B704700BF0038024080B483B080
:1045100000AF78600B46FB70FB78002B06D00A4B8F
:104520001A6C09497B6813430B6406E0064B1A6C4E
:104530007B68DB43044913400B6400BF0C37BD4666
:104540005DF8047B704700BF0038024080B483B040
:1045500000AF78600B46FB70FB78002B06D00A4B4F
:104560005A6C09497B6813434B6406E0064B5A6C4E
:104570007B68DB43044913404B6400BF0C37BD46E6
:104580005DF8047B704700BF0038024080B483B000
:1045900000AF78600B46FB70FB78002B06D00A4B0F
:1045A0001A6909497B6813430B6106E0064B1A69D7
:1045B0007B68DB43044913400B6100BF0C37BD46E9
:1045C0005DF8047B704700BF0038024080B483B0C0
:1045D00000AF78600B46FB70FB78002B06D00A4BCF
:1045E0005A6909497B6813434B6106E0064B5A69D7
:1045F0007B68DB43044913404B6100BF0C37BD4669
:104600005DF8047B704700BF0038024080B483B07F
:1046100000AF78600B46FB70FB78002B06D00A4B8E
:104620009A6909497B6813438B6106E0064B9A69D6
:104630007B68DB43044913408B6100BF0C37BD46E8
:104640005DF8047B704700BF0038024080B483B03F
:1046500000AF78600B46FB70FB78002B06D00A4B4E
:104660001A6A09497B6813430B6206E0064B1A6A13
:104670007B68DB43044913400B6200BF0C37BD4627
:104680005DF8047B704700BF0038024080B483B0FF
:1046900000AF78600B46FB70FB78002B06D00A4B0E
:1046A0005A6A09497B6813434B6206E0064B5A6A13
:1046B0007B68DB43044913404B6200BF0C37BD46A7
:1046C0005DF8047B704700BF0038024080B483B0BF
:1046D00000AF78600B46FB70FB78002B06D00A4BCE
:1046E0001A6D09497B6813430B6506E0064B1A6D8A
:1046F0007B68DB43044913400B6500BF0C37BD46A4
:104700005DF8047B704700BF0038024080B483B07E
:1047100000AF78600B46FB70FB78002B06D00A4B8D
:104720005A6D09497B6813434B6506E0064B5A6D89
:104730007B68DB43044913404B6500BF0C37BD4623
:104740005DF8047B704700BF0038024080B483B03E
:1047500000AF78600B46FB70FB78002B06D00A4B4D
:104760009A6D09497B6813438B6506E0064B9A6D89
:104770007B68DB43044913408B6500BF0C37BD46A3
:104780005DF8047B704700BF0038024080B483B0FE
:1047900000AF78600B46FB70FB78002B06D00A4B0D
:1047A0001A6E09497B6813430B6606E0064B1A6EC6
:1047B0007B68DB43044913400B6600BF0C37BD46E2
:1047C0005DF8047B704700BF0038024080B483B0BE
:1047D00000AF78600B46FB70FB78002B06D00A4BCD
:1047E0005A6E09497B6813434B6606E0064B5A6EC6
:1047F0007B68DB43044913404B6600BF0C37BD4662
:104800005DF8047B704700BF0038024080B483B07D
:1048100000AF03460A46FB711346BB71BB79002B00
:1048200008D00C4B1B78DAB20A49FB791343DBB290
:104830000B7009E0074B1B78DAB2FB79DB43DBB284
:1048400004491340DBB20B7000BF0C37BD465DF866
:10485000047B70470D38024080B487B000AF034638
:10486000FB710023FB6000237B610023FB74FB7959
:104870005B09DBB2FB60FB68012B03D1124B1B68A9
:104880007B6109E0FB68022B03D10F4B1B6F7B613F
:1048900002E00D4B5B6F7B61FB7903F01F03FB6054
:1048A0007A69FB6822FA03F303F00103002B02D0BC
:1048B0000123FB7401E00023FB74FB7C18461C37CA
:1048C000BD465DF8047B70470038024080B400AFFD
:1048D000054B5B6F044A43F08073536700BFBD46CE
:1048E0005DF8047B704700BF0038024080B485B09B
:1048F00000AF0346FB710023FB73094BDA68FB79B9
:104900001340002B02D00123FB7301E00023FB7353
:10491000FB7B18461437BD465DF8047B704700BF2B
:104920000038024080B483B000AF0346FB71044AF4
:10493000FB79137000BF0C37BD465DF8047B7047F0
:104940000E38024080B582B000AF78607B68604A64
:10495000934208D101210120FFF798FE0021012098
:10496000FFF794FEAFE07B68B3F1804F08D10121DF
:104970000120FFF76BFE00210120FFF767FEA2E098
:104980007B68544A934208D101210220FFF75EFE62
:1049900000210220FFF75AFE95E07B684E4A9342C1
:1049A00008D101210420FFF751FE00210420FFF768
:1049B0004DFE88E07B68494A934208D101210820D6
:1049C000FFF744FE00210820FFF740FE7BE07B68F4
:1049D000434A934208D101211020FFF737FE0021FE
:1049E0001020FFF733FE6EE07B683E4A934208D109
:1049F00001212020FFF72AFE00212020FFF726FEBC
:104A000061E07B68384A934208D101210220FFF718
:104A10003DFE00210220FFF739FE54E07B68334A57
:104A200093420AD101214FF48030FFF72FFE00217D
:104A30004FF48030FFF72AFE45E07B682C4A934212
:104A40000AD101214FF40030FFF720FE00214FF47E
:104A50000030FFF71BFE36E07B68264A93420AD1FE
:104A600001214FF48020FFF711FE00214FF4802038
:104A7000FFF70CFE27E07B681F4A934208D1012113
:104A80004020FFF7E3FD00214020FFF7DFFD1AE0A3
:104A90007B681A4A934208D101218020FFF7D6FD96
:104AA00000218020FFF7D2FD0DE07B68144A93427D
:104AB00009D101214FF48070FFF7C8FD00214FF4A8
:104AC0008070FFF7C3FD00BF0837BD4680BD00BF43
:104AD000000001400004004000080040000C0040BD
:104AE000001000400014004000040140004001405C
:104AF000004401400048014000180040001C0040F4
:104B00000020004080B485B000AF78603960002399
:104B1000FB817B681B88FB817B68294A934213D009
:104B20007B68284A93420FD07B68B3F1804F0BD04B
:104B30007B68254A934207D07B68244A934203D07E
:104B40007B68234A934208D1FB8923F07003FB81E1
:104B50003B685A88FB891343FB817B681D4A93425B
:104B60000CD07B681C4A934208D0FB8923F4407325
:104B7000FB813B681A89FB891343FB817B68FA89B7
:104B80001A803B685A687B68DA623B681A887B68DF
:104B90001A857B680A4A934203D07B68094A93428C
:104BA00004D13B689B7A9AB27B681A867B680122A3
:104BB0009A8200BF1437BD465DF8047B704700BF82
:104BC00000000140000401400004004000080040D3
:104BD000000C0040001000400014004080B483B07E
:104BE00000AF78607B684FF0FF325A607B6800222C
:104BF0001A807B6800221A817B6800225A807B68B9
:104C000000229A7200BF0C37BD465DF8047B7047E6
:104C100080B483B000AF78600B467B8013463B8046
:104C20007B687A881A857B683A889A8200BF0C373D
:104C3000BD465DF8047B704780B485B000AF7860F6
:104C40000B467B800023FB817B681B88FB81FB89F3
:104C500023F07003FB81FA897B881343FB817B6817
:104C6000FA891A8000BF1437BD465DF8047B70478F
:104C700080B483B000AF786039607B683A685A626C
:104C800000BF0C37BD465DF8047B704780B483B02D
:104C900000AF786039607B683A68DA6200BF0C3731
:104CA000BD465DF8047B704780B483B000AF786088
:104CB0007B685B6A18460C37BD465DF8047B70471D
:104CC00080B483B000AF78607B681B8D9BB21846C0
:104CD0000C37BD465DF8047B704780B483B000AFED
:104CE00078600B46FB70FB78002B08D07B681B8834
:104CF0009BB243F002039AB27B681A8007E07B689C
:104D00001B889BB223F002039AB27B681A8000BF13
:104D10000C37BD465DF8047B704780B483B000AFAC
:104D200078600B467B807B88002B08D07B681B88D3
:104D30009BB243F004039AB27B681A8007E07B6859
:104D40001B889BB223F004039AB27B681A8000BFD1
:104D50000C37BD465DF8047B704780B483B000AF6C
:104D600078600B46FB70FB78002B08D07B681B88B3
:104D70009BB243F080039AB27B681A8007E07B689D
:104D80001B889BB223F080039AB27B681A8000BF15
:104D90000C37BD465DF8047B704780B483B000AF2C
:104DA00078600B467B807B681B889BB223F00803EE
:104DB0009AB27B681A807B681B889AB27B881343FF
:104DC0009AB27B681A8000BF0C37BD465DF8047B41
:104DD000704780B483B000AF78600B467B807B68FF
:104DE0001B889BB223F440739AB27B681A807B685D
:104DF0001B889AB27B8813439AB27B681A8000BFE3
:104E00000C37BD465DF8047B704780B483B000AFBB
:104E100078600B46FB70FB78002B08D07B681B8802
:104E20009BB243F001039AB27B681A8007E07B686B
:104E30001B889BB223F001039AB27B681A8000BFE3
:104E40000C37BD465DF8047B704780B485B000AF79
:104E50007860396000237B810023FB810023BB81C4
:104E60007B681B8C9BB223F001039AB27B681A8487
:104E70007B681B8CFB817B689B88BB817B681B8B61
:104E80007B817B8923F070037B817B8923F0030383
:104E90007B813B681A887B8913437B81FB8923F0E4
:104EA0000203FB813B689A89FB891343FB813B68C2
:104EB0005A88FB891343FB817B681F4A934203D0C6
:104EC0007B681E4A934223D1FB8923F00803FB81B0
:104ED0003B68DA89FB891343FB81FB8923F00403D8
:104EE000FB813B689A88FB891343FB81BB8923F4D0
:104EF0008073BB81BB8923F40073BB813B681A8A32
:104F0000BB891343BB813B685A8ABB891343BB816E
:104F10007B68BA899A807B687A891A833B689A6829
:104F20007B685A637B68FA891A8400BF1437BD46D0
:104F30005DF8047B704700BF0000014000040140A1
:104F400080B485B000AF7860396000237B81002396
:104F5000FB810023BB817B681B8C9BB223F0100379
:104F60009AB27B681A847B681B8CFB817B689B8868
:104F7000BB817B681B8B7B817B8923F4E0437B8136
:104F80007B8923F440737B813B681B881B029AB2A8
:104F90007B8913437B81FB8923F02003FB813B68E2
:104FA0009B891B019AB2FB891343FB813B685B8899
:104FB0001B019AB2FB891343FB817B68224A93420F
:104FC00003D07B68214A93422BD1FB8923F08003D5
:104FD000FB813B68DB891B019AB2FB891343FB8190
:104FE000FB8923F04003FB813B689B881B019AB23D
:104FF000FB891343FB81BB8923F48063BB81BB899D
:1050000023F40063BB813B681B8A9B009AB2BB8977
:105010001343BB813B685B8A9B009AB2BB891343F5
:10502000BB817B68BA899A807B687A891A833B68DE
:105030009A687B689A637B68FA891A8400BF143780
:10504000BD465DF8047B704700000140000401404C
:1050500080B485B000AF7860396000237B81002385
:10506000FB810023BB817B681B8C9BB223F4807384
:105070009AB27B681A847B681B8CFB817B689B8857
:10508000BB817B689B8B7B817B8923F070037B8159
:105090007B8923F003037B813B681A887B89134358
:1050A0007B81FB8923F40073FB813B689B891B0296
:1050B0009AB2FB891343FB813B685B881B029AB25F
:1050C000FB891343FB817B68224A934203D07B68B0
:1050D000214A93422BD1FB8923F40063FB813B6877
:1050E000DB891B029AB2FB891343FB81FB8923F402
:1050F0008063FB813B689B881B029AB2FB89134348
:10510000FB81BB8923F48053BB81BB8923F400530B
:10511000BB813B681B8A1B019AB2BB891343BB81CD
:105120003B685B8A1B019AB2BB891343BB817B68D6
:10513000BA899A807B687A899A833B689A687B6887
:10514000DA637B68FA891A8400BF1437BD465DF8BC
:10515000047B7047000001400004014080B485B02A
:1051600000AF786039600023BB8100237B8100237E
:10517000FB817B681B8C9BB223F480539AB27B68C3
:105180001A847B681B8C7B817B689B88FB817B6896
:105190009B8BBB81BB8923F4E043BB81BB8923F498
:1051A0004073BB813B681B881B029AB2BB891343C7
:1051B000BB817B8923F400537B813B689B891B0364
:1051C0009AB27B8913437B813B685B881B039AB24D
:1051D0007B8913437B817B68124A934203D07B68AF
:1051E000114A93420AD1FB8923F48043FB813B6837
:1051F0001B8A9B019AB2FB891343FB817B68FA8966
:105200009A807B68BA899A833B689A687B681A643B
:105210007B687A891A8400BF1437BD465DF8047B29
:10522000704700BF000001400004014080B483B01B
:1052300000AF78607B6800221A807B6800225A8069
:105240007B6800229A807B6800229A607B6800223B
:105250009A817B680022DA817B6800221A827B684F
:1052600000225A8200BF0C37BD465DF8047B7047B0
:1052700080B485B000AF78600B467B8013463B80DE
:105280000023FB6000237B817B68FB60FB68183395
:10529000FB607B88012202FA03F37B817B681B8C15
:1052A0009AB27B89DB439BB213409AB27B681A8423
:1052B0007B88002B02D07B88082B14D17B885B086D
:1052C0009BB21A46FB681344FB60FB681968FA68D6
:1052D0004FF68F730B401360FB6819683A88FB68C0
:1052E0000A431A6018E07B88043B9BB25B089BB2C0
:1052F0001A46FB681344FB60FB681968FA6848F6B5
:10530000FF730B401360FB681A683B881B029BB25B
:105310001946FB680A431A6000BF1437BD465DF8A2
:10532000047B704780B483B000AF786039607B68DD
:105330003A685A6300BF0C37BD465DF8047B70477E
:1053400080B483B000AF786039607B683A689A6354
:1053500000BF0C37BD465DF8047B704780B483B056
:1053600000AF786039607B683A68DA6300BF0C3759
:10537000BD465DF8047B704780B483B000AF7860B1
:1053800039607B683A681A6400BF0C37BD465DF827
:10539000047B704780B485B000AF78600B467B809B
:1053A0000023FB817B681B8BFB81FB8923F070034F
:1053B000FB81FA897B881343FB817B68FA891A8316
:1053C00000BF1437BD465DF8047B704780B485B0DC
:1053D00000AF78600B467B800023FB817B681B8BD2
:1053E000FB81FB8923F4E043FB817B881B029AB29B
:1053F000FB891343FB817B68FA891A8300BF14374A
:10540000BD465DF8047B704780B485B000AF78601E
:105410000B467B800023FB817B689B8BFB81FB8998
:1054200023F07003FB81FA897B881343FB817B683F
:10543000FA899A8300BF1437BD465DF8047B704734
:1054400080B485B000AF78600B467B800023FB8181
:105450007B689B8BFB81FB8923F4E043FB817B888A
:105460001B029AB2FB891343FB817B68FA899A83FA
:1054700000BF1437BD465DF8047B704780B485B02B
:1054800000AF78600B467B800023FB817B681B8B21
:10549000FB81FB8923F00803FB81FA897B88134396
:1054A000FB817B68FA891A8300BF1437BD465DF81B
:1054B000047B704780B485B000AF78600B467B807A
:1054C0000023FB817B681B8BFB81FB8923F400633A
:1054D000FB817B881B029AB2FB891343FB817B68AB
:1054E000FA891A8300BF1437BD465DF8047B704704
:1054F00080B485B000AF78600B467B800023FB81D1
:105500007B689B8BFB81FB8923F00803FB81FA8975
:105510007B881343FB817B68FA899A8300BF143729
:10552000BD465DF8047B704780B485B000AF7860FD
:105530000B467B800023FB817B689B8BFB81FB8977
:1055400023F40063FB817B881B029AB2FB8913431F
:10555000FB817B68FA899A8300BF1437BD465DF8EA
:10556000047B704780B485B000AF78600B467B80C9
:105570000023FB817B681B8BFB81FB8923F00403E9
:10558000FB81FA897B881343FB817B68FA891A8344
:1055900000BF1437BD465DF8047B704780B485B00A
:1055A00000AF78600B467B800023FB817B681B8B00
:1055B000FB81FB8923F48063FB817B881B029AB209
:1055C000FB891343FB817B68FA891A8300BF143778
:1055D000BD465DF8047B704780B485B000AF78604D
:1055E0000B467B800023FB817B689B8BFB81FB89C7
:1055F00023F00403FB81FA897B881343FB817B68DA
:10560000FA899A8300BF1437BD465DF8047B704762
:1056100080B485B000AF78600B467B800023FB81AF
:105620007B689B8BFB81FB8923F48063FB817B88F8
:105630001B029AB2FB891343FB817B68FA899A8328
:1056400000BF1437BD465DF8047B704780B485B059
:1056500000AF78600B467B800023FB817B681B8B4F
:10566000FB81FB8923F08003FB81FA897B8813434C
:10567000FB817B68FA891A8300BF1437BD465DF849
:10568000047B704780B485B000AF78600B467B80A8
:105690000023FB817B681B8BFB81FB89C3F30E031B
:1056A000FB817B881B029AB2FB891343FB817B68D9
:1056B000FA891A8300BF1437BD465DF8047B704732
:1056C00080B485B000AF78600B467B800023FB81FF
:1056D0007B689B8BFB81FB8923F08003FB81FA892C
:1056E0007B881343FB817B68FA899A8300BF143758
:1056F000BD465DF8047B704780B485B000AF78602C
:105700000B467B800023FB817B689B8BFB81FB89A5
:10571000C3F30E03FB817B881B029AB2FB89134300
:10572000FB817B68FA899A8300BF1437BD465DF818
:10573000047B704780B485B000AF78600B467B80F7
:105740000023FB817B681B8CFB81FB8923F0020318
:10575000FB81FA897B881343FB817B68FA891A8471
:1057600000BF1437BD465DF8047B704780B485B038
:1057700000AF78600B467B800023FB817B681B8C2D
:10578000FB81FB8923F00803FB81FA897B881343A3
:10579000FB817B68FA891A8400BF1437BD465DF827
:1057A000047B704780B485B000AF78600B467B8087
:1057B0000023FB817B681B8CFB81FB8923F020038A
:1057C000FB817B881B019AB2FB891343FB817B68B9
:1057D000FA891A8400BF1437BD465DF8047B704710
:1057E00080B485B000AF78600B467B800023FB81DE
:1057F0007B681B8CFB81FB8923F08003FB817B880A
:105800001B019AB2FB891343FB817B68FA891A84D6
:1058100000BF1437BD465DF8047B704780B485B087
:1058200000AF78600B467B800023FB817B681B8C7C
:10583000FB81FB8923F40073FB817B881B029AB2F6
:10584000FB891343FB817B68FA891A8400BF1437F4
:10585000BD465DF8047B704780B485B000AF7860CA
:105860000B467B800023FB817B681B8CFB81FB89C3
:1058700023F40063FB817B881B029AB2FB891343EC
:10588000FB817B68FA891A8400BF1437BD465DF836
:10589000047B704780B485B000AF78600B467B8096
:1058A0000023FB817B681B8CFB81FB8923F4005365
:1058B000FB817B881B039AB2FB891343FB817B68C6
:1058C000FA891A8400BF1437BD465DF8047B70471F
:1058D00080B485B000AF78600B467B8013463B8078
:1058E0000023FB817B88012202FA03F3FB817B68A2
:1058F0001B8C9AB2FB89DB439BB213409AB27B6844
:105900001A847B681B8C9AB239887B8801FA03F36E
:105910009BB213439AB27B681A8400BF1437BD460A
:105920005DF8047B704780B485B000AF78600B46AB
:105930007B8013463B800023FB817B88042202FA94
:1059400003F3FB817B681B8C9AB2FB89DB439BB220
:1059500013409AB27B681A847B681B8C9AB2398890
:105960007B8801FA03F39BB213439AB27B681A84D3
:1059700000BF1437BD465DF8047B704780B582B028
:1059800000AF786039603B681B88002B0FD13B6803
:1059900059883B689A883B681B89786800F0B7FC97
:1059A0003B68DB881946786800F0E1F836E03B6830
:1059B0001B88042B0FD13B6859883B689A883B6849
:1059C0001B89786800F0E6FC3B68DB88194678683C
:1059D00000F0E9F822E03B681B88082B0FD13B68F8
:1059E00059883B689A883B681B89786800F01FFDDE
:1059F0003B68DB881946786800F0F3F80EE03B68F6
:105A000059883B689A883B681B89786800F057FD85
:105A10003B68DB881946786800F0FFF800BF08375C
:105A2000BD4680BD80B483B000AF78607B68002243
:105A30001A807B6800225A807B6801229A807B68EA
:105A40000022DA807B6800221A8100BF0C37BD4635
:105A50005DF8047B704780B584B000AF7860396032
:105A60000023FB810123BB813B685B88002B02D1B3
:105A70000223FB8101E00023FB813B689B88012B13
:105A800002D10223BB8101E00123BB813B681B885B
:105A9000002B1CD13B6859883B689A883B681B895E
:105AA000786800F034FC3B68DB881946786800F0C1
:105AB0005EF83B681B89BA89F989786800F06AFC4E
:105AC0003B68DB881946786800F06DF81BE03B689E
:105AD00059883B689A883B681B89786800F05AFCB3
